{
	"RentalAgreement.sol": {
		"RentalAgreement": {
			"abi": [
				{
					"inputs": [
						{
							"internalType": "uint256",
							"name": "_rentAmount",
							"type": "uint256"
						},
						{
							"internalType": "uint256",
							"name": "_deposit",
							"type": "uint256"
						},
						{
							"internalType": "uint256",
							"name": "_durationInDays",
							"type": "uint256"
						}
					],
					"stateMutability": "nonpayable",
					"type": "constructor"
				},
				{
					"inputs": [],
					"name": "active",
					"outputs": [
						{
							"internalType": "bool",
							"name": "",
							"type": "bool"
						}
					],
					"stateMutability": "view",
					"type": "function"
				},
				{
					"inputs": [],
					"name": "autoExpire",
					"outputs": [],
					"stateMutability": "nonpayable",
					"type": "function"
				},
				{
					"inputs": [],
					"name": "claimRent",
					"outputs": [],
					"stateMutability": "nonpayable",
					"type": "function"
				},
				{
					"inputs": [],
					"name": "duration",
					"outputs": [
						{
							"internalType": "uint256",
							"name": "",
							"type": "uint256"
						}
					],
					"stateMutability": "view",
					"type": "function"
				},
				{
					"inputs": [
						{
							"internalType": "bool",
							"name": "propertyOk",
							"type": "bool"
						}
					],
					"name": "endAgreement",
					"outputs": [],
					"stateMutability": "nonpayable",
					"type": "function"
				},
				{
					"inputs": [],
					"name": "getBalance",
					"outputs": [
						{
							"internalType": "uint256",
							"name": "",
							"type": "uint256"
						}
					],
					"stateMutability": "view",
					"type": "function"
				},
				{
					"inputs": [],
					"name": "joinAsTenant",
					"outputs": [],
					"stateMutability": "payable",
					"type": "function"
				},
				{
					"inputs": [],
					"name": "landlord",
					"outputs": [
						{
							"internalType": "address",
							"name": "",
							"type": "address"
						}
					],
					"stateMutability": "view",
					"type": "function"
				},
				{
					"inputs": [],
					"name": "lastRentPaid",
					"outputs": [
						{
							"internalType": "uint256",
							"name": "",
							"type": "uint256"
						}
					],
					"stateMutability": "view",
					"type": "function"
				},
				{
					"inputs": [],
					"name": "payNextRent",
					"outputs": [],
					"stateMutability": "payable",
					"type": "function"
				},
				{
					"inputs": [],
					"name": "rentAmount",
					"outputs": [
						{
							"internalType": "uint256",
							"name": "",
							"type": "uint256"
						}
					],
					"stateMutability": "view",
					"type": "function"
				},
				{
					"inputs": [],
					"name": "securityDeposit",
					"outputs": [
						{
							"internalType": "uint256",
							"name": "",
							"type": "uint256"
						}
					],
					"stateMutability": "view",
					"type": "function"
				},
				{
					"inputs": [],
					"name": "startTime",
					"outputs": [
						{
							"internalType": "uint256",
							"name": "",
							"type": "uint256"
						}
					],
					"stateMutability": "view",
					"type": "function"
				},
				{
					"inputs": [],
					"name": "tenant",
					"outputs": [
						{
							"internalType": "address",
							"name": "",
							"type": "address"
						}
					],
					"stateMutability": "view",
					"type": "function"
				}
			],
			"devdoc": {
				"kind": "dev",
				"methods": {},
				"version": 1
			},
			"evm": {
				"assembly": "    /* \"RentalAgreement.sol\":63:3317  contract RentalAgreement {... */\n  mstore(0x40, 0x80)\n    /* \"RentalAgreement.sol\":337:596  constructor(... */\n  callvalue\n  dup1\n  iszero\n  tag_1\n  jumpi\n  revert(0x00, 0x00)\ntag_1:\n  pop\n  mload(0x40)\n  sub(codesize, bytecodeSize)\n  dup1\n  bytecodeSize\n  dup4\n  codecopy\n  dup2\n  dup2\n  add\n  0x40\n  mstore\n  dup2\n  add\n  swap1\n  tag_2\n  swap2\n  swap1\n  tag_3\n  jump\t// in\ntag_2:\n    /* \"RentalAgreement.sol\":460:470  msg.sender */\n  caller\n    /* \"RentalAgreement.sol\":449:457  landlord */\n  0x00\n  0x00\n    /* \"RentalAgreement.sol\":449:470  landlord = msg.sender */\n  0x0100\n  exp\n  dup2\n  sload\n  dup2\n  0xffffffffffffffffffffffffffffffffffffffff\n  mul\n  not\n  and\n  swap1\n  dup4\n  0xffffffffffffffffffffffffffffffffffffffff\n  and\n  mul\n  or\n  swap1\n  sstore\n  pop\n    /* \"RentalAgreement.sol\":494:505  _rentAmount */\n  dup3\n    /* \"RentalAgreement.sol\":481:491  rentAmount */\n  0x02\n    /* \"RentalAgreement.sol\":481:505  rentAmount = _rentAmount */\n  dup2\n  swap1\n  sstore\n  pop\n    /* \"RentalAgreement.sol\":534:542  _deposit */\n  dup2\n    /* \"RentalAgreement.sol\":516:531  securityDeposit */\n  0x03\n    /* \"RentalAgreement.sol\":516:542  securityDeposit = _deposit */\n  dup2\n  swap1\n  sstore\n  pop\n    /* \"RentalAgreement.sol\":582:588  1 days */\n  0x015180\n    /* \"RentalAgreement.sol\":564:579  _durationInDays */\n  dup2\n    /* \"RentalAgreement.sol\":564:588  _durationInDays * 1 days */\n  tag_6\n  swap2\n  swap1\n  tag_7\n  jump\t// in\ntag_6:\n    /* \"RentalAgreement.sol\":553:561  duration */\n  0x06\n    /* \"RentalAgreement.sol\":553:588  duration = _durationInDays * 1 days */\n  dup2\n  swap1\n  sstore\n  pop\n    /* \"RentalAgreement.sol\":337:596  constructor(... */\n  pop\n  pop\n  pop\n    /* \"RentalAgreement.sol\":63:3317  contract RentalAgreement {... */\n  jump(tag_8)\n    /* \"#utility.yul\":88:205   */\ntag_10:\n    /* \"#utility.yul\":197:198   */\n  0x00\n    /* \"#utility.yul\":194:195   */\n  0x00\n    /* \"#utility.yul\":187:199   */\n  revert\n    /* \"#utility.yul\":334:411   */\ntag_12:\n    /* \"#utility.yul\":371:378   */\n  0x00\n    /* \"#utility.yul\":400:405   */\n  dup2\n    /* \"#utility.yul\":389:405   */\n  swap1\n  pop\n    /* \"#utility.yul\":334:411   */\n  swap2\n  swap1\n  pop\n  jump\t// out\n    /* \"#utility.yul\":417:539   */\ntag_13:\n    /* \"#utility.yul\":490:514   */\n  tag_22\n    /* \"#utility.yul\":508:513   */\n  dup2\n    /* \"#utility.yul\":490:514   */\n  tag_12\n  jump\t// in\ntag_22:\n    /* \"#utility.yul\":483:488   */\n  dup2\n    /* \"#utility.yul\":480:515   */\n  eq\n    /* \"#utility.yul\":470:533   */\n  tag_23\n  jumpi\n    /* \"#utility.yul\":529:530   */\n  0x00\n    /* \"#utility.yul\":526:527   */\n  0x00\n    /* \"#utility.yul\":519:531   */\n  revert\n    /* \"#utility.yul\":470:533   */\ntag_23:\n    /* \"#utility.yul\":417:539   */\n  pop\n  jump\t// out\n    /* \"#utility.yul\":545:688   */\ntag_14:\n    /* \"#utility.yul\":602:607   */\n  0x00\n    /* \"#utility.yul\":633:639   */\n  dup2\n    /* \"#utility.yul\":627:640   */\n  mload\n    /* \"#utility.yul\":618:640   */\n  swap1\n  pop\n    /* \"#utility.yul\":649:682   */\n  tag_25\n    /* \"#utility.yul\":676:681   */\n  dup2\n    /* \"#utility.yul\":649:682   */\n  tag_13\n  jump\t// in\ntag_25:\n    /* \"#utility.yul\":545:688   */\n  swap3\n  swap2\n  pop\n  pop\n  jump\t// out\n    /* \"#utility.yul\":694:1357   */\ntag_3:\n    /* \"#utility.yul\":782:788   */\n  0x00\n    /* \"#utility.yul\":790:796   */\n  0x00\n    /* \"#utility.yul\":798:804   */\n  0x00\n    /* \"#utility.yul\":847:849   */\n  0x60\n    /* \"#utility.yul\":835:844   */\n  dup5\n    /* \"#utility.yul\":826:833   */\n  dup7\n    /* \"#utility.yul\":822:845   */\n  sub\n    /* \"#utility.yul\":818:850   */\n  slt\n    /* \"#utility.yul\":815:934   */\n  iszero\n  tag_27\n  jumpi\n    /* \"#utility.yul\":853:932   */\n  tag_28\n  tag_10\n  jump\t// in\ntag_28:\n    /* \"#utility.yul\":815:934   */\ntag_27:\n    /* \"#utility.yul\":973:974   */\n  0x00\n    /* \"#utility.yul\":998:1062   */\n  tag_29\n    /* \"#utility.yul\":1054:1061   */\n  dup7\n    /* \"#utility.yul\":1045:1051   */\n  dup3\n    /* \"#utility.yul\":1034:1043   */\n  dup8\n    /* \"#utility.yul\":1030:1052   */\n  add\n    /* \"#utility.yul\":998:1062   */\n  tag_14\n  jump\t// in\ntag_29:\n    /* \"#utility.yul\":988:1062   */\n  swap4\n  pop\n    /* \"#utility.yul\":944:1072   */\n  pop\n    /* \"#utility.yul\":1111:1113   */\n  0x20\n    /* \"#utility.yul\":1137:1201   */\n  tag_30\n    /* \"#utility.yul\":1193:1200   */\n  dup7\n    /* \"#utility.yul\":1184:1190   */\n  dup3\n    /* \"#utility.yul\":1173:1182   */\n  dup8\n    /* \"#utility.yul\":1169:1191   */\n  add\n    /* \"#utility.yul\":1137:1201   */\n  tag_14\n  jump\t// in\ntag_30:\n    /* \"#utility.yul\":1127:1201   */\n  swap3\n  pop\n    /* \"#utility.yul\":1082:1211   */\n  pop\n    /* \"#utility.yul\":1250:1252   */\n  0x40\n    /* \"#utility.yul\":1276:1340   */\n  tag_31\n    /* \"#utility.yul\":1332:1339   */\n  dup7\n    /* \"#utility.yul\":1323:1329   */\n  dup3\n    /* \"#utility.yul\":1312:1321   */\n  dup8\n    /* \"#utility.yul\":1308:1330   */\n  add\n    /* \"#utility.yul\":1276:1340   */\n  tag_14\n  jump\t// in\ntag_31:\n    /* \"#utility.yul\":1266:1340   */\n  swap2\n  pop\n    /* \"#utility.yul\":1221:1350   */\n  pop\n    /* \"#utility.yul\":694:1357   */\n  swap3\n  pop\n  swap3\n  pop\n  swap3\n  jump\t// out\n    /* \"#utility.yul\":1363:1543   */\ntag_15:\n    /* \"#utility.yul\":1411:1488   */\n  0x4e487b7100000000000000000000000000000000000000000000000000000000\n    /* \"#utility.yul\":1408:1409   */\n  0x00\n    /* \"#utility.yul\":1401:1489   */\n  mstore\n    /* \"#utility.yul\":1508:1512   */\n  0x11\n    /* \"#utility.yul\":1505:1506   */\n  0x04\n    /* \"#utility.yul\":1498:1513   */\n  mstore\n    /* \"#utility.yul\":1532:1536   */\n  0x24\n    /* \"#utility.yul\":1529:1530   */\n  0x00\n    /* \"#utility.yul\":1522:1537   */\n  revert\n    /* \"#utility.yul\":1549:1959   */\ntag_7:\n    /* \"#utility.yul\":1589:1596   */\n  0x00\n    /* \"#utility.yul\":1612:1632   */\n  tag_34\n    /* \"#utility.yul\":1630:1631   */\n  dup3\n    /* \"#utility.yul\":1612:1632   */\n  tag_12\n  jump\t// in\ntag_34:\n    /* \"#utility.yul\":1607:1632   */\n  swap2\n  pop\n    /* \"#utility.yul\":1646:1666   */\n  tag_35\n    /* \"#utility.yul\":1664:1665   */\n  dup4\n    /* \"#utility.yul\":1646:1666   */\n  tag_12\n  jump\t// in\ntag_35:\n    /* \"#utility.yul\":1641:1666   */\n  swap3\n  pop\n    /* \"#utility.yul\":1701:1702   */\n  dup3\n    /* \"#utility.yul\":1698:1699   */\n  dup3\n    /* \"#utility.yul\":1694:1703   */\n  mul\n    /* \"#utility.yul\":1723:1753   */\n  tag_36\n    /* \"#utility.yul\":1741:1752   */\n  dup2\n    /* \"#utility.yul\":1723:1753   */\n  tag_12\n  jump\t// in\ntag_36:\n    /* \"#utility.yul\":1712:1753   */\n  swap2\n  pop\n    /* \"#utility.yul\":1902:1903   */\n  dup3\n    /* \"#utility.yul\":1893:1900   */\n  dup3\n    /* \"#utility.yul\":1889:1904   */\n  div\n    /* \"#utility.yul\":1886:1887   */\n  dup5\n    /* \"#utility.yul\":1883:1905   */\n  eq\n    /* \"#utility.yul\":1863:1864   */\n  dup4\n    /* \"#utility.yul\":1856:1865   */\n  iszero\n    /* \"#utility.yul\":1836:1919   */\n  or\n    /* \"#utility.yul\":1813:1952   */\n  tag_37\n  jumpi\n    /* \"#utility.yul\":1932:1950   */\n  tag_38\n  tag_15\n  jump\t// in\ntag_38:\n    /* \"#utility.yul\":1813:1952   */\ntag_37:\n    /* \"#utility.yul\":1597:1959   */\n  pop\n    /* \"#utility.yul\":1549:1959   */\n  swap3\n  swap2\n  pop\n  pop\n  jump\t// out\n    /* \"RentalAgreement.sol\":63:3317  contract RentalAgreement {... */\ntag_8:\n  dataSize(sub_0)\n  dup1\n  dataOffset(sub_0)\n  0x00\n  codecopy\n  0x00\n  return\nstop\n\nsub_0: assembly {\n        /* \"RentalAgreement.sol\":63:3317  contract RentalAgreement {... */\n      mstore(0x40, 0x80)\n      jumpi(tag_1, lt(calldatasize, 0x04))\n      shr(0xe0, calldataload(0x00))\n      dup1\n      0xb6d6f55b\n      gt\n      tag_16\n      jumpi\n      dup1\n      0xe14f4cca\n      gt\n      tag_17\n      jumpi\n      dup1\n      0xe14f4cca\n      eq\n      tag_12\n      jumpi\n      dup1\n      0xe1d703e4\n      eq\n      tag_13\n      jumpi\n      dup1\n      0xf8ef1e13\n      eq\n      tag_14\n      jumpi\n      dup1\n      0xfe1ac79e\n      eq\n      tag_15\n      jumpi\n      jump(tag_1)\n    tag_17:\n      dup1\n      0xb6d6f55b\n      eq\n      tag_9\n      jumpi\n      dup1\n      0xd5ec1b16\n      eq\n      tag_10\n      jumpi\n      dup1\n      0xdc1997ea\n      eq\n      tag_11\n      jumpi\n      jump(tag_1)\n    tag_16:\n      dup1\n      0x220e5ab3\n      gt\n      tag_18\n      jumpi\n      dup1\n      0x220e5ab3\n      eq\n      tag_5\n      jumpi\n      dup1\n      0x78e97925\n      eq\n      tag_6\n      jumpi\n      dup1\n      0x8cbe5104\n      eq\n      tag_7\n      jumpi\n      dup1\n      0xadf07791\n      eq\n      tag_8\n      jumpi\n      jump(tag_1)\n    tag_18:\n      dup1\n      0x02fb0c5e\n      eq\n      tag_2\n      jumpi\n      dup1\n      0x0fb5a6b4\n      eq\n      tag_3\n      jumpi\n      dup1\n      0x12065fe0\n      eq\n      tag_4\n      jumpi\n    tag_1:\n      revert(0x00, 0x00)\n        /* \"RentalAgreement.sol\":310:328  bool public active */\n    tag_2:\n      callvalue\n      dup1\n      iszero\n      tag_19\n      jumpi\n      revert(0x00, 0x00)\n    tag_19:\n      pop\n      tag_20\n      tag_21\n      jump\t// in\n    tag_20:\n      mload(0x40)\n      tag_22\n      swap2\n      swap1\n      tag_23\n      jump\t// in\n    tag_22:\n      mload(0x40)\n      dup1\n      swap2\n      sub\n      swap1\n      return\n        /* \"RentalAgreement.sol\":283:303  uint public duration */\n    tag_3:\n      callvalue\n      dup1\n      iszero\n      tag_24\n      jumpi\n      revert(0x00, 0x00)\n    tag_24:\n      pop\n      tag_25\n      tag_26\n      jump\t// in\n    tag_25:\n      mload(0x40)\n      tag_27\n      swap2\n      swap1\n      tag_28\n      jump\t// in\n    tag_27:\n      mload(0x40)\n      dup1\n      swap2\n      sub\n      swap1\n      return\n        /* \"RentalAgreement.sol\":3215:3312  function getBalance() external view returns(uint) {... */\n    tag_4:\n      callvalue\n      dup1\n      iszero\n      tag_29\n      jumpi\n      revert(0x00, 0x00)\n    tag_29:\n      pop\n      tag_30\n      tag_31\n      jump\t// in\n    tag_30:\n      mload(0x40)\n      tag_32\n      swap2\n      swap1\n      tag_28\n      jump\t// in\n    tag_32:\n      mload(0x40)\n      dup1\n      swap2\n      sub\n      swap1\n      return\n        /* \"RentalAgreement.sol\":186:213  uint public securityDeposit */\n    tag_5:\n      callvalue\n      dup1\n      iszero\n      tag_33\n      jumpi\n      revert(0x00, 0x00)\n    tag_33:\n      pop\n      tag_34\n      tag_35\n      jump\t// in\n    tag_34:\n      mload(0x40)\n      tag_36\n      swap2\n      swap1\n      tag_28\n      jump\t// in\n    tag_36:\n      mload(0x40)\n      dup1\n      swap2\n      sub\n      swap1\n      return\n        /* \"RentalAgreement.sol\":222:243  uint public startTime */\n    tag_6:\n      callvalue\n      dup1\n      iszero\n      tag_37\n      jumpi\n      revert(0x00, 0x00)\n    tag_37:\n      pop\n      tag_38\n      tag_39\n      jump\t// in\n    tag_38:\n      mload(0x40)\n      tag_40\n      swap2\n      swap1\n      tag_28\n      jump\t// in\n    tag_40:\n      mload(0x40)\n      dup1\n      swap2\n      sub\n      swap1\n      return\n        /* \"RentalAgreement.sol\":1712:2056  function claimRent() external onlyLandlord isActive {... */\n    tag_7:\n      callvalue\n      dup1\n      iszero\n      tag_41\n      jumpi\n      revert(0x00, 0x00)\n    tag_41:\n      pop\n      tag_42\n      tag_43\n      jump\t// in\n    tag_42:\n      stop\n        /* \"RentalAgreement.sol\":127:148  address public tenant */\n    tag_8:\n      callvalue\n      dup1\n      iszero\n      tag_44\n      jumpi\n      revert(0x00, 0x00)\n    tag_44:\n      pop\n      tag_45\n      tag_46\n      jump\t// in\n    tag_45:\n      mload(0x40)\n      tag_47\n      swap2\n      swap1\n      tag_48\n      jump\t// in\n    tag_47:\n      mload(0x40)\n      dup1\n      swap2\n      sub\n      swap1\n      return\n        /* \"RentalAgreement.sol\":2163:2652  function endAgreement(bool propertyOk)... */\n    tag_9:\n      callvalue\n      dup1\n      iszero\n      tag_49\n      jumpi\n      revert(0x00, 0x00)\n    tag_49:\n      pop\n      tag_50\n      0x04\n      dup1\n      calldatasize\n      sub\n      dup2\n      add\n      swap1\n      tag_51\n      swap2\n      swap1\n      tag_52\n      jump\t// in\n    tag_51:\n      tag_53\n      jump\t// in\n    tag_50:\n      stop\n        /* \"RentalAgreement.sol\":2760:3119  function autoExpire() external {... */\n    tag_10:\n      callvalue\n      dup1\n      iszero\n      tag_54\n      jumpi\n      revert(0x00, 0x00)\n    tag_54:\n      pop\n      tag_55\n      tag_56\n      jump\t// in\n    tag_55:\n      stop\n        /* \"RentalAgreement.sol\":97:120  address public landlord */\n    tag_11:\n      callvalue\n      dup1\n      iszero\n      tag_57\n      jumpi\n      revert(0x00, 0x00)\n    tag_57:\n      pop\n      tag_58\n      tag_59\n      jump\t// in\n    tag_58:\n      mload(0x40)\n      tag_60\n      swap2\n      swap1\n      tag_48\n      jump\t// in\n    tag_60:\n      mload(0x40)\n      dup1\n      swap2\n      sub\n      swap1\n      return\n        /* \"RentalAgreement.sol\":1538:1667  function payNextRent() external payable onlyTenant isActive {... */\n    tag_12:\n      tag_61\n      tag_62\n      jump\t// in\n    tag_61:\n      stop\n        /* \"RentalAgreement.sol\":250:274  uint public lastRentPaid */\n    tag_13:\n      callvalue\n      dup1\n      iszero\n      tag_63\n      jumpi\n      revert(0x00, 0x00)\n    tag_63:\n      pop\n      tag_64\n      tag_65\n      jump\t// in\n    tag_64:\n      mload(0x40)\n      tag_66\n      swap2\n      swap1\n      tag_28\n      jump\t// in\n    tag_66:\n      mload(0x40)\n      dup1\n      swap2\n      sub\n      swap1\n      return\n        /* \"RentalAgreement.sol\":157:179  uint public rentAmount */\n    tag_14:\n      callvalue\n      dup1\n      iszero\n      tag_67\n      jumpi\n      revert(0x00, 0x00)\n    tag_67:\n      pop\n      tag_68\n      tag_69\n      jump\t// in\n    tag_68:\n      mload(0x40)\n      tag_70\n      swap2\n      swap1\n      tag_28\n      jump\t// in\n    tag_70:\n      mload(0x40)\n      dup1\n      swap2\n      sub\n      swap1\n      return\n        /* \"RentalAgreement.sol\":1079:1444  function joinAsTenant() external payable {... */\n    tag_15:\n      tag_71\n      tag_72\n      jump\t// in\n    tag_71:\n      stop\n        /* \"RentalAgreement.sol\":310:328  bool public active */\n    tag_21:\n      0x07\n      0x00\n      swap1\n      sload\n      swap1\n      0x0100\n      exp\n      swap1\n      div\n      0xff\n      and\n      dup2\n      jump\t// out\n        /* \"RentalAgreement.sol\":283:303  uint public duration */\n    tag_26:\n      sload(0x06)\n      dup2\n      jump\t// out\n        /* \"RentalAgreement.sol\":3215:3312  function getBalance() external view returns(uint) {... */\n    tag_31:\n        /* \"RentalAgreement.sol\":3259:3263  uint */\n      0x00\n        /* \"RentalAgreement.sol\":3283:3304  address(this).balance */\n      selfbalance\n        /* \"RentalAgreement.sol\":3276:3304  return address(this).balance */\n      swap1\n      pop\n        /* \"RentalAgreement.sol\":3215:3312  function getBalance() external view returns(uint) {... */\n      swap1\n      jump\t// out\n        /* \"RentalAgreement.sol\":186:213  uint public securityDeposit */\n    tag_35:\n      sload(0x03)\n      dup2\n      jump\t// out\n        /* \"RentalAgreement.sol\":222:243  uint public startTime */\n    tag_39:\n      sload(0x04)\n      dup2\n      jump\t// out\n        /* \"RentalAgreement.sol\":1712:2056  function claimRent() external onlyLandlord isActive {... */\n    tag_43:\n        /* \"RentalAgreement.sol\":715:723  landlord */\n      0x00\n      0x00\n      swap1\n      sload\n      swap1\n      0x0100\n      exp\n      swap1\n      div\n      0xffffffffffffffffffffffffffffffffffffffff\n      and\n        /* \"RentalAgreement.sol\":701:723  msg.sender == landlord */\n      0xffffffffffffffffffffffffffffffffffffffff\n      and\n        /* \"RentalAgreement.sol\":701:711  msg.sender */\n      caller\n        /* \"RentalAgreement.sol\":701:723  msg.sender == landlord */\n      0xffffffffffffffffffffffffffffffffffffffff\n      and\n      eq\n        /* \"RentalAgreement.sol\":693:740  require(msg.sender == landlord, \"Not landlord\") */\n      tag_75\n      jumpi\n      mload(0x40)\n      0x08c379a000000000000000000000000000000000000000000000000000000000\n      dup2\n      mstore\n      0x04\n      add\n      tag_76\n      swap1\n      tag_77\n      jump\t// in\n    tag_76:\n      mload(0x40)\n      dup1\n      swap2\n      sub\n      swap1\n      revert\n    tag_75:\n        /* \"RentalAgreement.sol\":911:917  active */\n      0x07\n      0x00\n      swap1\n      sload\n      swap1\n      0x0100\n      exp\n      swap1\n      div\n      0xff\n      and\n        /* \"RentalAgreement.sol\":903:941  require(active, \"Contract not active\") */\n      tag_79\n      jumpi\n      mload(0x40)\n      0x08c379a000000000000000000000000000000000000000000000000000000000\n      dup2\n      mstore\n      0x04\n      add\n      tag_80\n      swap1\n      tag_81\n      jump\t// in\n    tag_80:\n      mload(0x40)\n      dup1\n      swap2\n      sub\n      swap1\n      revert\n    tag_79:\n        /* \"RentalAgreement.sol\":1833:1840  30 days */\n      0x278d00\n        /* \"RentalAgreement.sol\":1818:1830  lastRentPaid */\n      sload(0x05)\n        /* \"RentalAgreement.sol\":1818:1840  lastRentPaid + 30 days */\n      tag_83\n      swap2\n      swap1\n      tag_84\n      jump\t// in\n    tag_83:\n        /* \"RentalAgreement.sol\":1799:1814  block.timestamp */\n      timestamp\n        /* \"RentalAgreement.sol\":1799:1840  block.timestamp >= lastRentPaid + 30 days */\n      lt\n      iszero\n        /* \"RentalAgreement.sol\":1777:1886  require(... */\n      tag_85\n      jumpi\n      mload(0x40)\n      0x08c379a000000000000000000000000000000000000000000000000000000000\n      dup2\n      mstore\n      0x04\n      add\n      tag_86\n      swap1\n      tag_87\n      jump\t// in\n    tag_86:\n      mload(0x40)\n      dup1\n      swap2\n      sub\n      swap1\n      revert\n    tag_85:\n        /* \"RentalAgreement.sol\":1914:1929  block.timestamp */\n      timestamp\n        /* \"RentalAgreement.sol\":1899:1911  lastRentPaid */\n      0x05\n        /* \"RentalAgreement.sol\":1899:1929  lastRentPaid = block.timestamp */\n      dup2\n      swap1\n      sstore\n      pop\n        /* \"RentalAgreement.sol\":1943:1955  bool success */\n      0x00\n        /* \"RentalAgreement.sol\":1961:1969  landlord */\n      0x00\n      0x00\n      swap1\n      sload\n      swap1\n      0x0100\n      exp\n      swap1\n      div\n      0xffffffffffffffffffffffffffffffffffffffff\n      and\n        /* \"RentalAgreement.sol\":1961:1974  landlord.call */\n      0xffffffffffffffffffffffffffffffffffffffff\n      and\n        /* \"RentalAgreement.sol\":1982:1992  rentAmount */\n      sload(0x02)\n        /* \"RentalAgreement.sol\":1961:1997  landlord.call{value: rentAmount}(\"\") */\n      mload(0x40)\n      tag_88\n      swap1\n      tag_89\n      jump\t// in\n    tag_88:\n      0x00\n      mload(0x40)\n      dup1\n      dup4\n      sub\n      dup2\n      dup6\n      dup8\n      gas\n      call\n      swap3\n      pop\n      pop\n      pop\n      returndatasize\n      dup1\n      0x00\n      dup2\n      eq\n      tag_92\n      jumpi\n      mload(0x40)\n      swap2\n      pop\n      and(add(returndatasize, 0x3f), not(0x1f))\n      dup3\n      add\n      0x40\n      mstore\n      returndatasize\n      dup3\n      mstore\n      returndatasize\n      0x00\n      0x20\n      dup5\n      add\n      returndatacopy\n      jump(tag_91)\n    tag_92:\n      0x60\n      swap2\n      pop\n    tag_91:\n      pop\n        /* \"RentalAgreement.sol\":1942:1997  (bool success, ) = landlord.call{value: rentAmount}(\"\") */\n      pop\n      swap1\n      pop\n        /* \"RentalAgreement.sol\":2016:2023  success */\n      dup1\n        /* \"RentalAgreement.sol\":2008:2048  require(success, \"Rent transfer failed\") */\n      tag_93\n      jumpi\n      mload(0x40)\n      0x08c379a000000000000000000000000000000000000000000000000000000000\n      dup2\n      mstore\n      0x04\n      add\n      tag_94\n      swap1\n      tag_95\n      jump\t// in\n    tag_94:\n      mload(0x40)\n      dup1\n      swap2\n      sub\n      swap1\n      revert\n    tag_93:\n        /* \"RentalAgreement.sol\":1764:2056  {... */\n      pop\n        /* \"RentalAgreement.sol\":1712:2056  function claimRent() external onlyLandlord isActive {... */\n      jump\t// out\n        /* \"RentalAgreement.sol\":127:148  address public tenant */\n    tag_46:\n      0x01\n      0x00\n      swap1\n      sload\n      swap1\n      0x0100\n      exp\n      swap1\n      div\n      0xffffffffffffffffffffffffffffffffffffffff\n      and\n      dup2\n      jump\t// out\n        /* \"RentalAgreement.sol\":2163:2652  function endAgreement(bool propertyOk)... */\n    tag_53:\n        /* \"RentalAgreement.sol\":715:723  landlord */\n      0x00\n      0x00\n      swap1\n      sload\n      swap1\n      0x0100\n      exp\n      swap1\n      div\n      0xffffffffffffffffffffffffffffffffffffffff\n      and\n        /* \"RentalAgreement.sol\":701:723  msg.sender == landlord */\n      0xffffffffffffffffffffffffffffffffffffffff\n      and\n        /* \"RentalAgreement.sol\":701:711  msg.sender */\n      caller\n        /* \"RentalAgreement.sol\":701:723  msg.sender == landlord */\n      0xffffffffffffffffffffffffffffffffffffffff\n      and\n      eq\n        /* \"RentalAgreement.sol\":693:740  require(msg.sender == landlord, \"Not landlord\") */\n      tag_97\n      jumpi\n      mload(0x40)\n      0x08c379a000000000000000000000000000000000000000000000000000000000\n      dup2\n      mstore\n      0x04\n      add\n      tag_98\n      swap1\n      tag_77\n      jump\t// in\n    tag_98:\n      mload(0x40)\n      dup1\n      swap2\n      sub\n      swap1\n      revert\n    tag_97:\n        /* \"RentalAgreement.sol\":911:917  active */\n      0x07\n      0x00\n      swap1\n      sload\n      swap1\n      0x0100\n      exp\n      swap1\n      div\n      0xff\n      and\n        /* \"RentalAgreement.sol\":903:941  require(active, \"Contract not active\") */\n      tag_100\n      jumpi\n      mload(0x40)\n      0x08c379a000000000000000000000000000000000000000000000000000000000\n      dup2\n      mstore\n      0x04\n      add\n      tag_101\n      swap1\n      tag_81\n      jump\t// in\n    tag_101:\n      mload(0x40)\n      dup1\n      swap2\n      sub\n      swap1\n      revert\n    tag_100:\n        /* \"RentalAgreement.sol\":2287:2292  false */\n      0x00\n        /* \"RentalAgreement.sol\":2278:2284  active */\n      0x07\n      0x00\n        /* \"RentalAgreement.sol\":2278:2292  active = false */\n      0x0100\n      exp\n      dup2\n      sload\n      dup2\n      0xff\n      mul\n      not\n      and\n      swap1\n      dup4\n      iszero\n      iszero\n      mul\n      or\n      swap1\n      sstore\n      pop\n        /* \"RentalAgreement.sol\":2309:2319  propertyOk */\n      dup1\n        /* \"RentalAgreement.sol\":2305:2645  if (propertyOk) {... */\n      iszero\n      tag_103\n      jumpi\n        /* \"RentalAgreement.sol\":2339:2351  bool success */\n      0x00\n        /* \"RentalAgreement.sol\":2374:2380  tenant */\n      0x01\n      0x00\n      swap1\n      sload\n      swap1\n      0x0100\n      exp\n      swap1\n      div\n      0xffffffffffffffffffffffffffffffffffffffff\n      and\n        /* \"RentalAgreement.sol\":2374:2385  tenant.call */\n      0xffffffffffffffffffffffffffffffffffffffff\n      and\n        /* \"RentalAgreement.sol\":2393:2408  securityDeposit */\n      sload(0x03)\n        /* \"RentalAgreement.sol\":2374:2413  tenant.call{value: securityDeposit}(\"\") */\n      mload(0x40)\n      tag_104\n      swap1\n      tag_89\n      jump\t// in\n    tag_104:\n      0x00\n      mload(0x40)\n      dup1\n      dup4\n      sub\n      dup2\n      dup6\n      dup8\n      gas\n      call\n      swap3\n      pop\n      pop\n      pop\n      returndatasize\n      dup1\n      0x00\n      dup2\n      eq\n      tag_107\n      jumpi\n      mload(0x40)\n      swap2\n      pop\n      and(add(returndatasize, 0x3f), not(0x1f))\n      dup3\n      add\n      0x40\n      mstore\n      returndatasize\n      dup3\n      mstore\n      returndatasize\n      0x00\n      0x20\n      dup5\n      add\n      returndatacopy\n      jump(tag_106)\n    tag_107:\n      0x60\n      swap2\n      pop\n    tag_106:\n      pop\n        /* \"RentalAgreement.sol\":2338:2413  (bool success, ) =... */\n      pop\n      swap1\n      pop\n        /* \"RentalAgreement.sol\":2436:2443  success */\n      dup1\n        /* \"RentalAgreement.sol\":2428:2461  require(success, \"Refund failed\") */\n      tag_108\n      jumpi\n      mload(0x40)\n      0x08c379a000000000000000000000000000000000000000000000000000000000\n      dup2\n      mstore\n      0x04\n      add\n      tag_109\n      swap1\n      tag_110\n      jump\t// in\n    tag_109:\n      mload(0x40)\n      dup1\n      swap2\n      sub\n      swap1\n      revert\n    tag_108:\n        /* \"RentalAgreement.sol\":2321:2475  {... */\n      pop\n        /* \"RentalAgreement.sol\":2305:2645  if (propertyOk) {... */\n      jump(tag_111)\n    tag_103:\n        /* \"RentalAgreement.sol\":2499:2511  bool success */\n      0x00\n        /* \"RentalAgreement.sol\":2534:2542  landlord */\n      0x00\n      0x00\n      swap1\n      sload\n      swap1\n      0x0100\n      exp\n      swap1\n      div\n      0xffffffffffffffffffffffffffffffffffffffff\n      and\n        /* \"RentalAgreement.sol\":2534:2547  landlord.call */\n      0xffffffffffffffffffffffffffffffffffffffff\n      and\n        /* \"RentalAgreement.sol\":2555:2570  securityDeposit */\n      sload(0x03)\n        /* \"RentalAgreement.sol\":2534:2575  landlord.call{value: securityDeposit}(\"\") */\n      mload(0x40)\n      tag_112\n      swap1\n      tag_89\n      jump\t// in\n    tag_112:\n      0x00\n      mload(0x40)\n      dup1\n      dup4\n      sub\n      dup2\n      dup6\n      dup8\n      gas\n      call\n      swap3\n      pop\n      pop\n      pop\n      returndatasize\n      dup1\n      0x00\n      dup2\n      eq\n      tag_115\n      jumpi\n      mload(0x40)\n      swap2\n      pop\n      and(add(returndatasize, 0x3f), not(0x1f))\n      dup3\n      add\n      0x40\n      mstore\n      returndatasize\n      dup3\n      mstore\n      returndatasize\n      0x00\n      0x20\n      dup5\n      add\n      returndatacopy\n      jump(tag_114)\n    tag_115:\n      0x60\n      swap2\n      pop\n    tag_114:\n      pop\n        /* \"RentalAgreement.sol\":2498:2575  (bool success, ) =... */\n      pop\n      swap1\n      pop\n        /* \"RentalAgreement.sol\":2598:2605  success */\n      dup1\n        /* \"RentalAgreement.sol\":2590:2633  require(success, \"Deposit transfer failed\") */\n      tag_116\n      jumpi\n      mload(0x40)\n      0x08c379a000000000000000000000000000000000000000000000000000000000\n      dup2\n      mstore\n      0x04\n      add\n      tag_117\n      swap1\n      tag_118\n      jump\t// in\n    tag_117:\n      mload(0x40)\n      dup1\n      swap2\n      sub\n      swap1\n      revert\n    tag_116:\n        /* \"RentalAgreement.sol\":2481:2645  {... */\n      pop\n        /* \"RentalAgreement.sol\":2305:2645  if (propertyOk) {... */\n    tag_111:\n        /* \"RentalAgreement.sol\":2163:2652  function endAgreement(bool propertyOk)... */\n      pop\n      jump\t// out\n        /* \"RentalAgreement.sol\":2760:3119  function autoExpire() external {... */\n    tag_56:\n        /* \"RentalAgreement.sol\":2857:2865  duration */\n      sload(0x06)\n        /* \"RentalAgreement.sol\":2845:2854  startTime */\n      sload(0x04)\n        /* \"RentalAgreement.sol\":2845:2865  startTime + duration */\n      tag_120\n      swap2\n      swap1\n      tag_84\n      jump\t// in\n    tag_120:\n        /* \"RentalAgreement.sol\":2826:2841  block.timestamp */\n      timestamp\n        /* \"RentalAgreement.sol\":2826:2865  block.timestamp >= startTime + duration */\n      lt\n      iszero\n        /* \"RentalAgreement.sol\":2804:2905  require(... */\n      tag_121\n      jumpi\n      mload(0x40)\n      0x08c379a000000000000000000000000000000000000000000000000000000000\n      dup2\n      mstore\n      0x04\n      add\n      tag_122\n      swap1\n      tag_123\n      jump\t// in\n    tag_122:\n      mload(0x40)\n      dup1\n      swap2\n      sub\n      swap1\n      revert\n    tag_121:\n        /* \"RentalAgreement.sol\":2926:2932  active */\n      0x07\n      0x00\n      swap1\n      sload\n      swap1\n      0x0100\n      exp\n      swap1\n      div\n      0xff\n      and\n        /* \"RentalAgreement.sol\":2918:2951  require(active, \"Already closed\") */\n      tag_124\n      jumpi\n      mload(0x40)\n      0x08c379a000000000000000000000000000000000000000000000000000000000\n      dup2\n      mstore\n      0x04\n      add\n      tag_125\n      swap1\n      tag_126\n      jump\t// in\n    tag_125:\n      mload(0x40)\n      dup1\n      swap2\n      sub\n      swap1\n      revert\n    tag_124:\n        /* \"RentalAgreement.sol\":2973:2978  false */\n      0x00\n        /* \"RentalAgreement.sol\":2964:2970  active */\n      0x07\n      0x00\n        /* \"RentalAgreement.sol\":2964:2978  active = false */\n      0x0100\n      exp\n      dup2\n      sload\n      dup2\n      0xff\n      mul\n      not\n      and\n      swap1\n      dup4\n      iszero\n      iszero\n      mul\n      or\n      swap1\n      sstore\n      pop\n        /* \"RentalAgreement.sol\":2992:3004  bool success */\n      0x00\n        /* \"RentalAgreement.sol\":3023:3029  tenant */\n      0x01\n      0x00\n      swap1\n      sload\n      swap1\n      0x0100\n      exp\n      swap1\n      div\n      0xffffffffffffffffffffffffffffffffffffffff\n      and\n        /* \"RentalAgreement.sol\":3023:3034  tenant.call */\n      0xffffffffffffffffffffffffffffffffffffffff\n      and\n        /* \"RentalAgreement.sol\":3042:3057  securityDeposit */\n      sload(0x03)\n        /* \"RentalAgreement.sol\":3023:3062  tenant.call{value: securityDeposit}(\"\") */\n      mload(0x40)\n      tag_127\n      swap1\n      tag_89\n      jump\t// in\n    tag_127:\n      0x00\n      mload(0x40)\n      dup1\n      dup4\n      sub\n      dup2\n      dup6\n      dup8\n      gas\n      call\n      swap3\n      pop\n      pop\n      pop\n      returndatasize\n      dup1\n      0x00\n      dup2\n      eq\n      tag_130\n      jumpi\n      mload(0x40)\n      swap2\n      pop\n      and(add(returndatasize, 0x3f), not(0x1f))\n      dup3\n      add\n      0x40\n      mstore\n      returndatasize\n      dup3\n      mstore\n      returndatasize\n      0x00\n      0x20\n      dup5\n      add\n      returndatacopy\n      jump(tag_129)\n    tag_130:\n      0x60\n      swap2\n      pop\n    tag_129:\n      pop\n        /* \"RentalAgreement.sol\":2991:3062  (bool success, ) =... */\n      pop\n      swap1\n      pop\n        /* \"RentalAgreement.sol\":3081:3088  success */\n      dup1\n        /* \"RentalAgreement.sol\":3073:3111  require(success, \"Auto refund failed\") */\n      tag_131\n      jumpi\n      mload(0x40)\n      0x08c379a000000000000000000000000000000000000000000000000000000000\n      dup2\n      mstore\n      0x04\n      add\n      tag_132\n      swap1\n      tag_133\n      jump\t// in\n    tag_132:\n      mload(0x40)\n      dup1\n      swap2\n      sub\n      swap1\n      revert\n    tag_131:\n        /* \"RentalAgreement.sol\":2791:3119  {... */\n      pop\n        /* \"RentalAgreement.sol\":2760:3119  function autoExpire() external {... */\n      jump\t// out\n        /* \"RentalAgreement.sol\":97:120  address public landlord */\n    tag_59:\n      0x00\n      0x00\n      swap1\n      sload\n      swap1\n      0x0100\n      exp\n      swap1\n      div\n      0xffffffffffffffffffffffffffffffffffffffff\n      and\n      dup2\n      jump\t// out\n        /* \"RentalAgreement.sol\":1538:1667  function payNextRent() external payable onlyTenant isActive {... */\n    tag_62:\n        /* \"RentalAgreement.sol\":823:829  tenant */\n      0x01\n      0x00\n      swap1\n      sload\n      swap1\n      0x0100\n      exp\n      swap1\n      div\n      0xffffffffffffffffffffffffffffffffffffffff\n      and\n        /* \"RentalAgreement.sol\":809:829  msg.sender == tenant */\n      0xffffffffffffffffffffffffffffffffffffffff\n      and\n        /* \"RentalAgreement.sol\":809:819  msg.sender */\n      caller\n        /* \"RentalAgreement.sol\":809:829  msg.sender == tenant */\n      0xffffffffffffffffffffffffffffffffffffffff\n      and\n      eq\n        /* \"RentalAgreement.sol\":801:844  require(msg.sender == tenant, \"Not tenant\") */\n      tag_135\n      jumpi\n      mload(0x40)\n      0x08c379a000000000000000000000000000000000000000000000000000000000\n      dup2\n      mstore\n      0x04\n      add\n      tag_136\n      swap1\n      tag_137\n      jump\t// in\n    tag_136:\n      mload(0x40)\n      dup1\n      swap2\n      sub\n      swap1\n      revert\n    tag_135:\n        /* \"RentalAgreement.sol\":911:917  active */\n      0x07\n      0x00\n      swap1\n      sload\n      swap1\n      0x0100\n      exp\n      swap1\n      div\n      0xff\n      and\n        /* \"RentalAgreement.sol\":903:941  require(active, \"Contract not active\") */\n      tag_139\n      jumpi\n      mload(0x40)\n      0x08c379a000000000000000000000000000000000000000000000000000000000\n      dup2\n      mstore\n      0x04\n      add\n      tag_140\n      swap1\n      tag_81\n      jump\t// in\n    tag_140:\n      mload(0x40)\n      dup1\n      swap2\n      sub\n      swap1\n      revert\n    tag_139:\n        /* \"RentalAgreement.sol\":1632:1642  rentAmount */\n      sload(0x02)\n        /* \"RentalAgreement.sol\":1619:1628  msg.value */\n      callvalue\n        /* \"RentalAgreement.sol\":1619:1642  msg.value == rentAmount */\n      eq\n        /* \"RentalAgreement.sol\":1611:1659  require(msg.value == rentAmount, \"Wrong amount\") */\n      tag_142\n      jumpi\n      mload(0x40)\n      0x08c379a000000000000000000000000000000000000000000000000000000000\n      dup2\n      mstore\n      0x04\n      add\n      tag_143\n      swap1\n      tag_144\n      jump\t// in\n    tag_143:\n      mload(0x40)\n      dup1\n      swap2\n      sub\n      swap1\n      revert\n    tag_142:\n        /* \"RentalAgreement.sol\":1538:1667  function payNextRent() external payable onlyTenant isActive {... */\n      jump\t// out\n        /* \"RentalAgreement.sol\":250:274  uint public lastRentPaid */\n    tag_65:\n      sload(0x05)\n      dup2\n      jump\t// out\n        /* \"RentalAgreement.sol\":157:179  uint public rentAmount */\n    tag_69:\n      sload(0x02)\n      dup2\n      jump\t// out\n        /* \"RentalAgreement.sol\":1079:1444  function joinAsTenant() external payable {... */\n    tag_72:\n        /* \"RentalAgreement.sol\":1159:1160  0 */\n      0x00\n        /* \"RentalAgreement.sol\":1141:1161  tenant == address(0) */\n      0xffffffffffffffffffffffffffffffffffffffff\n      and\n        /* \"RentalAgreement.sol\":1141:1147  tenant */\n      0x01\n      0x00\n      swap1\n      sload\n      swap1\n      0x0100\n      exp\n      swap1\n      div\n      0xffffffffffffffffffffffffffffffffffffffff\n      and\n        /* \"RentalAgreement.sol\":1141:1161  tenant == address(0) */\n      0xffffffffffffffffffffffffffffffffffffffff\n      and\n      eq\n        /* \"RentalAgreement.sol\":1133:1180  require(tenant == address(0), \"Already rented\") */\n      tag_146\n      jumpi\n      mload(0x40)\n      0x08c379a000000000000000000000000000000000000000000000000000000000\n      dup2\n      mstore\n      0x04\n      add\n      tag_147\n      swap1\n      tag_148\n      jump\t// in\n    tag_147:\n      mload(0x40)\n      dup1\n      swap2\n      sub\n      swap1\n      revert\n    tag_146:\n        /* \"RentalAgreement.sol\":1241:1256  securityDeposit */\n      sload(0x03)\n        /* \"RentalAgreement.sol\":1228:1238  rentAmount */\n      sload(0x02)\n        /* \"RentalAgreement.sol\":1228:1256  rentAmount + securityDeposit */\n      tag_149\n      swap2\n      swap1\n      tag_84\n      jump\t// in\n    tag_149:\n        /* \"RentalAgreement.sol\":1215:1224  msg.value */\n      callvalue\n        /* \"RentalAgreement.sol\":1215:1256  msg.value == rentAmount + securityDeposit */\n      eq\n        /* \"RentalAgreement.sol\":1193:1301  require(... */\n      tag_150\n      jumpi\n      mload(0x40)\n      0x08c379a000000000000000000000000000000000000000000000000000000000\n      dup2\n      mstore\n      0x04\n      add\n      tag_151\n      swap1\n      tag_152\n      jump\t// in\n    tag_151:\n      mload(0x40)\n      dup1\n      swap2\n      sub\n      swap1\n      revert\n    tag_150:\n        /* \"RentalAgreement.sol\":1323:1333  msg.sender */\n      caller\n        /* \"RentalAgreement.sol\":1314:1320  tenant */\n      0x01\n      0x00\n        /* \"RentalAgreement.sol\":1314:1333  tenant = msg.sender */\n      0x0100\n      exp\n      dup2\n      sload\n      dup2\n      0xffffffffffffffffffffffffffffffffffffffff\n      mul\n      not\n      and\n      swap1\n      dup4\n      0xffffffffffffffffffffffffffffffffffffffff\n      and\n      mul\n      or\n      swap1\n      sstore\n      pop\n        /* \"RentalAgreement.sol\":1356:1371  block.timestamp */\n      timestamp\n        /* \"RentalAgreement.sol\":1344:1353  startTime */\n      0x04\n        /* \"RentalAgreement.sol\":1344:1371  startTime = block.timestamp */\n      dup2\n      swap1\n      sstore\n      pop\n        /* \"RentalAgreement.sol\":1397:1412  block.timestamp */\n      timestamp\n        /* \"RentalAgreement.sol\":1382:1394  lastRentPaid */\n      0x05\n        /* \"RentalAgreement.sol\":1382:1412  lastRentPaid = block.timestamp */\n      dup2\n      swap1\n      sstore\n      pop\n        /* \"RentalAgreement.sol\":1432:1436  true */\n      0x01\n        /* \"RentalAgreement.sol\":1423:1429  active */\n      0x07\n      0x00\n        /* \"RentalAgreement.sol\":1423:1436  active = true */\n      0x0100\n      exp\n      dup2\n      sload\n      dup2\n      0xff\n      mul\n      not\n      and\n      swap1\n      dup4\n      iszero\n      iszero\n      mul\n      or\n      swap1\n      sstore\n      pop\n        /* \"RentalAgreement.sol\":1079:1444  function joinAsTenant() external payable {... */\n      jump\t// out\n        /* \"#utility.yul\":7:97   */\n    tag_153:\n        /* \"#utility.yul\":41:48   */\n      0x00\n        /* \"#utility.yul\":84:89   */\n      dup2\n        /* \"#utility.yul\":77:90   */\n      iszero\n        /* \"#utility.yul\":70:91   */\n      iszero\n        /* \"#utility.yul\":59:91   */\n      swap1\n      pop\n        /* \"#utility.yul\":7:97   */\n      swap2\n      swap1\n      pop\n      jump\t// out\n        /* \"#utility.yul\":103:212   */\n    tag_154:\n        /* \"#utility.yul\":184:205   */\n      tag_199\n        /* \"#utility.yul\":199:204   */\n      dup2\n        /* \"#utility.yul\":184:205   */\n      tag_153\n      jump\t// in\n    tag_199:\n        /* \"#utility.yul\":179:182   */\n      dup3\n        /* \"#utility.yul\":172:206   */\n      mstore\n        /* \"#utility.yul\":103:212   */\n      pop\n      pop\n      jump\t// out\n        /* \"#utility.yul\":218:428   */\n    tag_23:\n        /* \"#utility.yul\":305:309   */\n      0x00\n        /* \"#utility.yul\":343:345   */\n      0x20\n        /* \"#utility.yul\":332:341   */\n      dup3\n        /* \"#utility.yul\":328:346   */\n      add\n        /* \"#utility.yul\":320:346   */\n      swap1\n      pop\n        /* \"#utility.yul\":356:421   */\n      tag_201\n        /* \"#utility.yul\":418:419   */\n      0x00\n        /* \"#utility.yul\":407:416   */\n      dup4\n        /* \"#utility.yul\":403:420   */\n      add\n        /* \"#utility.yul\":394:400   */\n      dup5\n        /* \"#utility.yul\":356:421   */\n      tag_154\n      jump\t// in\n    tag_201:\n        /* \"#utility.yul\":218:428   */\n      swap3\n      swap2\n      pop\n      pop\n      jump\t// out\n        /* \"#utility.yul\":434:511   */\n    tag_155:\n        /* \"#utility.yul\":471:478   */\n      0x00\n        /* \"#utility.yul\":500:505   */\n      dup2\n        /* \"#utility.yul\":489:505   */\n      swap1\n      pop\n        /* \"#utility.yul\":434:511   */\n      swap2\n      swap1\n      pop\n      jump\t// out\n        /* \"#utility.yul\":517:635   */\n    tag_156:\n        /* \"#utility.yul\":604:628   */\n      tag_204\n        /* \"#utility.yul\":622:627   */\n      dup2\n        /* \"#utility.yul\":604:628   */\n      tag_155\n      jump\t// in\n    tag_204:\n        /* \"#utility.yul\":599:602   */\n      dup3\n        /* \"#utility.yul\":592:629   */\n      mstore\n        /* \"#utility.yul\":517:635   */\n      pop\n      pop\n      jump\t// out\n        /* \"#utility.yul\":641:863   */\n    tag_28:\n        /* \"#utility.yul\":734:738   */\n      0x00\n        /* \"#utility.yul\":772:774   */\n      0x20\n        /* \"#utility.yul\":761:770   */\n      dup3\n        /* \"#utility.yul\":757:775   */\n      add\n        /* \"#utility.yul\":749:775   */\n      swap1\n      pop\n        /* \"#utility.yul\":785:856   */\n      tag_206\n        /* \"#utility.yul\":853:854   */\n      0x00\n        /* \"#utility.yul\":842:851   */\n      dup4\n        /* \"#utility.yul\":838:855   */\n      add\n        /* \"#utility.yul\":829:835   */\n      dup5\n        /* \"#utility.yul\":785:856   */\n      tag_156\n      jump\t// in\n    tag_206:\n        /* \"#utility.yul\":641:863   */\n      swap3\n      swap2\n      pop\n      pop\n      jump\t// out\n        /* \"#utility.yul\":869:995   */\n    tag_157:\n        /* \"#utility.yul\":906:913   */\n      0x00\n        /* \"#utility.yul\":946:988   */\n      0xffffffffffffffffffffffffffffffffffffffff\n        /* \"#utility.yul\":939:944   */\n      dup3\n        /* \"#utility.yul\":935:989   */\n      and\n        /* \"#utility.yul\":924:989   */\n      swap1\n      pop\n        /* \"#utility.yul\":869:995   */\n      swap2\n      swap1\n      pop\n      jump\t// out\n        /* \"#utility.yul\":1001:1097   */\n    tag_158:\n        /* \"#utility.yul\":1038:1045   */\n      0x00\n        /* \"#utility.yul\":1067:1091   */\n      tag_209\n        /* \"#utility.yul\":1085:1090   */\n      dup3\n        /* \"#utility.yul\":1067:1091   */\n      tag_157\n      jump\t// in\n    tag_209:\n        /* \"#utility.yul\":1056:1091   */\n      swap1\n      pop\n        /* \"#utility.yul\":1001:1097   */\n      swap2\n      swap1\n      pop\n      jump\t// out\n        /* \"#utility.yul\":1103:1221   */\n    tag_159:\n        /* \"#utility.yul\":1190:1214   */\n      tag_211\n        /* \"#utility.yul\":1208:1213   */\n      dup2\n        /* \"#utility.yul\":1190:1214   */\n      tag_158\n      jump\t// in\n    tag_211:\n        /* \"#utility.yul\":1185:1188   */\n      dup3\n        /* \"#utility.yul\":1178:1215   */\n      mstore\n        /* \"#utility.yul\":1103:1221   */\n      pop\n      pop\n      jump\t// out\n        /* \"#utility.yul\":1227:1449   */\n    tag_48:\n        /* \"#utility.yul\":1320:1324   */\n      0x00\n        /* \"#utility.yul\":1358:1360   */\n      0x20\n        /* \"#utility.yul\":1347:1356   */\n      dup3\n        /* \"#utility.yul\":1343:1361   */\n      add\n        /* \"#utility.yul\":1335:1361   */\n      swap1\n      pop\n        /* \"#utility.yul\":1371:1442   */\n      tag_213\n        /* \"#utility.yul\":1439:1440   */\n      0x00\n        /* \"#utility.yul\":1428:1437   */\n      dup4\n        /* \"#utility.yul\":1424:1441   */\n      add\n        /* \"#utility.yul\":1415:1421   */\n      dup5\n        /* \"#utility.yul\":1371:1442   */\n      tag_159\n      jump\t// in\n    tag_213:\n        /* \"#utility.yul\":1227:1449   */\n      swap3\n      swap2\n      pop\n      pop\n      jump\t// out\n        /* \"#utility.yul\":1536:1653   */\n    tag_161:\n        /* \"#utility.yul\":1645:1646   */\n      0x00\n        /* \"#utility.yul\":1642:1643   */\n      0x00\n        /* \"#utility.yul\":1635:1647   */\n      revert\n        /* \"#utility.yul\":1782:1898   */\n    tag_163:\n        /* \"#utility.yul\":1852:1873   */\n      tag_218\n        /* \"#utility.yul\":1867:1872   */\n      dup2\n        /* \"#utility.yul\":1852:1873   */\n      tag_153\n      jump\t// in\n    tag_218:\n        /* \"#utility.yul\":1845:1850   */\n      dup2\n        /* \"#utility.yul\":1842:1874   */\n      eq\n        /* \"#utility.yul\":1832:1892   */\n      tag_219\n      jumpi\n        /* \"#utility.yul\":1888:1889   */\n      0x00\n        /* \"#utility.yul\":1885:1886   */\n      0x00\n        /* \"#utility.yul\":1878:1890   */\n      revert\n        /* \"#utility.yul\":1832:1892   */\n    tag_219:\n        /* \"#utility.yul\":1782:1898   */\n      pop\n      jump\t// out\n        /* \"#utility.yul\":1904:2037   */\n    tag_164:\n        /* \"#utility.yul\":1947:1952   */\n      0x00\n        /* \"#utility.yul\":1985:1991   */\n      dup2\n        /* \"#utility.yul\":1972:1992   */\n      calldataload\n        /* \"#utility.yul\":1963:1992   */\n      swap1\n      pop\n        /* \"#utility.yul\":2001:2031   */\n      tag_221\n        /* \"#utility.yul\":2025:2030   */\n      dup2\n        /* \"#utility.yul\":2001:2031   */\n      tag_163\n      jump\t// in\n    tag_221:\n        /* \"#utility.yul\":1904:2037   */\n      swap3\n      swap2\n      pop\n      pop\n      jump\t// out\n        /* \"#utility.yul\":2043:2366   */\n    tag_52:\n        /* \"#utility.yul\":2099:2105   */\n      0x00\n        /* \"#utility.yul\":2148:2150   */\n      0x20\n        /* \"#utility.yul\":2136:2145   */\n      dup3\n        /* \"#utility.yul\":2127:2134   */\n      dup5\n        /* \"#utility.yul\":2123:2146   */\n      sub\n        /* \"#utility.yul\":2119:2151   */\n      slt\n        /* \"#utility.yul\":2116:2235   */\n      iszero\n      tag_223\n      jumpi\n        /* \"#utility.yul\":2154:2233   */\n      tag_224\n      tag_161\n      jump\t// in\n    tag_224:\n        /* \"#utility.yul\":2116:2235   */\n    tag_223:\n        /* \"#utility.yul\":2274:2275   */\n      0x00\n        /* \"#utility.yul\":2299:2349   */\n      tag_225\n        /* \"#utility.yul\":2341:2348   */\n      dup5\n        /* \"#utility.yul\":2332:2338   */\n      dup3\n        /* \"#utility.yul\":2321:2330   */\n      dup6\n        /* \"#utility.yul\":2317:2339   */\n      add\n        /* \"#utility.yul\":2299:2349   */\n      tag_164\n      jump\t// in\n    tag_225:\n        /* \"#utility.yul\":2289:2349   */\n      swap2\n      pop\n        /* \"#utility.yul\":2245:2359   */\n      pop\n        /* \"#utility.yul\":2043:2366   */\n      swap3\n      swap2\n      pop\n      pop\n      jump\t// out\n        /* \"#utility.yul\":2372:2541   */\n    tag_165:\n        /* \"#utility.yul\":2456:2467   */\n      0x00\n        /* \"#utility.yul\":2490:2496   */\n      dup3\n        /* \"#utility.yul\":2485:2488   */\n      dup3\n        /* \"#utility.yul\":2478:2497   */\n      mstore\n        /* \"#utility.yul\":2530:2534   */\n      0x20\n        /* \"#utility.yul\":2525:2528   */\n      dup3\n        /* \"#utility.yul\":2521:2535   */\n      add\n        /* \"#utility.yul\":2506:2535   */\n      swap1\n      pop\n        /* \"#utility.yul\":2372:2541   */\n      swap3\n      swap2\n      pop\n      pop\n      jump\t// out\n        /* \"#utility.yul\":2547:2709   */\n    tag_166:\n        /* \"#utility.yul\":2687:2701   */\n      0x4e6f74206c616e646c6f72640000000000000000000000000000000000000000\n        /* \"#utility.yul\":2683:2684   */\n      0x00\n        /* \"#utility.yul\":2675:2681   */\n      dup3\n        /* \"#utility.yul\":2671:2685   */\n      add\n        /* \"#utility.yul\":2664:2702   */\n      mstore\n        /* \"#utility.yul\":2547:2709   */\n      pop\n      jump\t// out\n        /* \"#utility.yul\":2715:3081   */\n    tag_167:\n        /* \"#utility.yul\":2857:2860   */\n      0x00\n        /* \"#utility.yul\":2878:2945   */\n      tag_229\n        /* \"#utility.yul\":2942:2944   */\n      0x0c\n        /* \"#utility.yul\":2937:2940   */\n      dup4\n        /* \"#utility.yul\":2878:2945   */\n      tag_165\n      jump\t// in\n    tag_229:\n        /* \"#utility.yul\":2871:2945   */\n      swap2\n      pop\n        /* \"#utility.yul\":2954:3047   */\n      tag_230\n        /* \"#utility.yul\":3043:3046   */\n      dup3\n        /* \"#utility.yul\":2954:3047   */\n      tag_166\n      jump\t// in\n    tag_230:\n        /* \"#utility.yul\":3072:3074   */\n      0x20\n        /* \"#utility.yul\":3067:3070   */\n      dup3\n        /* \"#utility.yul\":3063:3075   */\n      add\n        /* \"#utility.yul\":3056:3075   */\n      swap1\n      pop\n        /* \"#utility.yul\":2715:3081   */\n      swap2\n      swap1\n      pop\n      jump\t// out\n        /* \"#utility.yul\":3087:3506   */\n    tag_77:\n        /* \"#utility.yul\":3253:3257   */\n      0x00\n        /* \"#utility.yul\":3291:3293   */\n      0x20\n        /* \"#utility.yul\":3280:3289   */\n      dup3\n        /* \"#utility.yul\":3276:3294   */\n      add\n        /* \"#utility.yul\":3268:3294   */\n      swap1\n      pop\n        /* \"#utility.yul\":3340:3349   */\n      dup2\n        /* \"#utility.yul\":3334:3338   */\n      dup2\n        /* \"#utility.yul\":3330:3350   */\n      sub\n        /* \"#utility.yul\":3326:3327   */\n      0x00\n        /* \"#utility.yul\":3315:3324   */\n      dup4\n        /* \"#utility.yul\":3311:3328   */\n      add\n        /* \"#utility.yul\":3304:3351   */\n      mstore\n        /* \"#utility.yul\":3368:3499   */\n      tag_232\n        /* \"#utility.yul\":3494:3498   */\n      dup2\n        /* \"#utility.yul\":3368:3499   */\n      tag_167\n      jump\t// in\n    tag_232:\n        /* \"#utility.yul\":3360:3499   */\n      swap1\n      pop\n        /* \"#utility.yul\":3087:3506   */\n      swap2\n      swap1\n      pop\n      jump\t// out\n        /* \"#utility.yul\":3512:3681   */\n    tag_168:\n        /* \"#utility.yul\":3652:3673   */\n      0x436f6e7472616374206e6f742061637469766500000000000000000000000000\n        /* \"#utility.yul\":3648:3649   */\n      0x00\n        /* \"#utility.yul\":3640:3646   */\n      dup3\n        /* \"#utility.yul\":3636:3650   */\n      add\n        /* \"#utility.yul\":3629:3674   */\n      mstore\n        /* \"#utility.yul\":3512:3681   */\n      pop\n      jump\t// out\n        /* \"#utility.yul\":3687:4053   */\n    tag_169:\n        /* \"#utility.yul\":3829:3832   */\n      0x00\n        /* \"#utility.yul\":3850:3917   */\n      tag_235\n        /* \"#utility.yul\":3914:3916   */\n      0x13\n        /* \"#utility.yul\":3909:3912   */\n      dup4\n        /* \"#utility.yul\":3850:3917   */\n      tag_165\n      jump\t// in\n    tag_235:\n        /* \"#utility.yul\":3843:3917   */\n      swap2\n      pop\n        /* \"#utility.yul\":3926:4019   */\n      tag_236\n        /* \"#utility.yul\":4015:4018   */\n      dup3\n        /* \"#utility.yul\":3926:4019   */\n      tag_168\n      jump\t// in\n    tag_236:\n        /* \"#utility.yul\":4044:4046   */\n      0x20\n        /* \"#utility.yul\":4039:4042   */\n      dup3\n        /* \"#utility.yul\":4035:4047   */\n      add\n        /* \"#utility.yul\":4028:4047   */\n      swap1\n      pop\n        /* \"#utility.yul\":3687:4053   */\n      swap2\n      swap1\n      pop\n      jump\t// out\n        /* \"#utility.yul\":4059:4478   */\n    tag_81:\n        /* \"#utility.yul\":4225:4229   */\n      0x00\n        /* \"#utility.yul\":4263:4265   */\n      0x20\n        /* \"#utility.yul\":4252:4261   */\n      dup3\n        /* \"#utility.yul\":4248:4266   */\n      add\n        /* \"#utility.yul\":4240:4266   */\n      swap1\n      pop\n        /* \"#utility.yul\":4312:4321   */\n      dup2\n        /* \"#utility.yul\":4306:4310   */\n      dup2\n        /* \"#utility.yul\":4302:4322   */\n      sub\n        /* \"#utility.yul\":4298:4299   */\n      0x00\n        /* \"#utility.yul\":4287:4296   */\n      dup4\n        /* \"#utility.yul\":4283:4300   */\n      add\n        /* \"#utility.yul\":4276:4323   */\n      mstore\n        /* \"#utility.yul\":4340:4471   */\n      tag_238\n        /* \"#utility.yul\":4466:4470   */\n      dup2\n        /* \"#utility.yul\":4340:4471   */\n      tag_169\n      jump\t// in\n    tag_238:\n        /* \"#utility.yul\":4332:4471   */\n      swap1\n      pop\n        /* \"#utility.yul\":4059:4478   */\n      swap2\n      swap1\n      pop\n      jump\t// out\n        /* \"#utility.yul\":4484:4664   */\n    tag_170:\n        /* \"#utility.yul\":4532:4609   */\n      0x4e487b7100000000000000000000000000000000000000000000000000000000\n        /* \"#utility.yul\":4529:4530   */\n      0x00\n        /* \"#utility.yul\":4522:4610   */\n      mstore\n        /* \"#utility.yul\":4629:4633   */\n      0x11\n        /* \"#utility.yul\":4626:4627   */\n      0x04\n        /* \"#utility.yul\":4619:4634   */\n      mstore\n        /* \"#utility.yul\":4653:4657   */\n      0x24\n        /* \"#utility.yul\":4650:4651   */\n      0x00\n        /* \"#utility.yul\":4643:4658   */\n      revert\n        /* \"#utility.yul\":4670:4861   */\n    tag_84:\n        /* \"#utility.yul\":4710:4713   */\n      0x00\n        /* \"#utility.yul\":4729:4749   */\n      tag_241\n        /* \"#utility.yul\":4747:4748   */\n      dup3\n        /* \"#utility.yul\":4729:4749   */\n      tag_155\n      jump\t// in\n    tag_241:\n        /* \"#utility.yul\":4724:4749   */\n      swap2\n      pop\n        /* \"#utility.yul\":4763:4783   */\n      tag_242\n        /* \"#utility.yul\":4781:4782   */\n      dup4\n        /* \"#utility.yul\":4763:4783   */\n      tag_155\n      jump\t// in\n    tag_242:\n        /* \"#utility.yul\":4758:4783   */\n      swap3\n      pop\n        /* \"#utility.yul\":4806:4807   */\n      dup3\n        /* \"#utility.yul\":4803:4804   */\n      dup3\n        /* \"#utility.yul\":4799:4808   */\n      add\n        /* \"#utility.yul\":4792:4808   */\n      swap1\n      pop\n        /* \"#utility.yul\":4827:4830   */\n      dup1\n        /* \"#utility.yul\":4824:4825   */\n      dup3\n        /* \"#utility.yul\":4821:4831   */\n      gt\n        /* \"#utility.yul\":4818:4854   */\n      iszero\n      tag_243\n      jumpi\n        /* \"#utility.yul\":4834:4852   */\n      tag_244\n      tag_170\n      jump\t// in\n    tag_244:\n        /* \"#utility.yul\":4818:4854   */\n    tag_243:\n        /* \"#utility.yul\":4670:4861   */\n      swap3\n      swap2\n      pop\n      pop\n      jump\t// out\n        /* \"#utility.yul\":4867:5035   */\n    tag_171:\n        /* \"#utility.yul\":5007:5027   */\n      0x546f6f206561726c7920746f20636c61696d0000000000000000000000000000\n        /* \"#utility.yul\":5003:5004   */\n      0x00\n        /* \"#utility.yul\":4995:5001   */\n      dup3\n        /* \"#utility.yul\":4991:5005   */\n      add\n        /* \"#utility.yul\":4984:5028   */\n      mstore\n        /* \"#utility.yul\":4867:5035   */\n      pop\n      jump\t// out\n        /* \"#utility.yul\":5041:5407   */\n    tag_172:\n        /* \"#utility.yul\":5183:5186   */\n      0x00\n        /* \"#utility.yul\":5204:5271   */\n      tag_247\n        /* \"#utility.yul\":5268:5270   */\n      0x12\n        /* \"#utility.yul\":5263:5266   */\n      dup4\n        /* \"#utility.yul\":5204:5271   */\n      tag_165\n      jump\t// in\n    tag_247:\n        /* \"#utility.yul\":5197:5271   */\n      swap2\n      pop\n        /* \"#utility.yul\":5280:5373   */\n      tag_248\n        /* \"#utility.yul\":5369:5372   */\n      dup3\n        /* \"#utility.yul\":5280:5373   */\n      tag_171\n      jump\t// in\n    tag_248:\n        /* \"#utility.yul\":5398:5400   */\n      0x20\n        /* \"#utility.yul\":5393:5396   */\n      dup3\n        /* \"#utility.yul\":5389:5401   */\n      add\n        /* \"#utility.yul\":5382:5401   */\n      swap1\n      pop\n        /* \"#utility.yul\":5041:5407   */\n      swap2\n      swap1\n      pop\n      jump\t// out\n        /* \"#utility.yul\":5413:5832   */\n    tag_87:\n        /* \"#utility.yul\":5579:5583   */\n      0x00\n        /* \"#utility.yul\":5617:5619   */\n      0x20\n        /* \"#utility.yul\":5606:5615   */\n      dup3\n        /* \"#utility.yul\":5602:5620   */\n      add\n        /* \"#utility.yul\":5594:5620   */\n      swap1\n      pop\n        /* \"#utility.yul\":5666:5675   */\n      dup2\n        /* \"#utility.yul\":5660:5664   */\n      dup2\n        /* \"#utility.yul\":5656:5676   */\n      sub\n        /* \"#utility.yul\":5652:5653   */\n      0x00\n        /* \"#utility.yul\":5641:5650   */\n      dup4\n        /* \"#utility.yul\":5637:5654   */\n      add\n        /* \"#utility.yul\":5630:5677   */\n      mstore\n        /* \"#utility.yul\":5694:5825   */\n      tag_250\n        /* \"#utility.yul\":5820:5824   */\n      dup2\n        /* \"#utility.yul\":5694:5825   */\n      tag_172\n      jump\t// in\n    tag_250:\n        /* \"#utility.yul\":5686:5825   */\n      swap1\n      pop\n        /* \"#utility.yul\":5413:5832   */\n      swap2\n      swap1\n      pop\n      jump\t// out\n        /* \"#utility.yul\":5838:5985   */\n    tag_173:\n        /* \"#utility.yul\":5939:5950   */\n      0x00\n        /* \"#utility.yul\":5976:5979   */\n      dup2\n        /* \"#utility.yul\":5961:5979   */\n      swap1\n      pop\n        /* \"#utility.yul\":5838:5985   */\n      swap3\n      swap2\n      pop\n      pop\n      jump\t// out\n        /* \"#utility.yul\":5991:6105   */\n    tag_174:\n      pop\n      jump\t// out\n        /* \"#utility.yul\":6111:6509   */\n    tag_175:\n        /* \"#utility.yul\":6270:6273   */\n      0x00\n        /* \"#utility.yul\":6291:6374   */\n      tag_254\n        /* \"#utility.yul\":6372:6373   */\n      0x00\n        /* \"#utility.yul\":6367:6370   */\n      dup4\n        /* \"#utility.yul\":6291:6374   */\n      tag_173\n      jump\t// in\n    tag_254:\n        /* \"#utility.yul\":6284:6374   */\n      swap2\n      pop\n        /* \"#utility.yul\":6383:6476   */\n      tag_255\n        /* \"#utility.yul\":6472:6475   */\n      dup3\n        /* \"#utility.yul\":6383:6476   */\n      tag_174\n      jump\t// in\n    tag_255:\n        /* \"#utility.yul\":6501:6502   */\n      0x00\n        /* \"#utility.yul\":6496:6499   */\n      dup3\n        /* \"#utility.yul\":6492:6503   */\n      add\n        /* \"#utility.yul\":6485:6503   */\n      swap1\n      pop\n        /* \"#utility.yul\":6111:6509   */\n      swap2\n      swap1\n      pop\n      jump\t// out\n        /* \"#utility.yul\":6515:6894   */\n    tag_89:\n        /* \"#utility.yul\":6699:6702   */\n      0x00\n        /* \"#utility.yul\":6721:6868   */\n      tag_257\n        /* \"#utility.yul\":6864:6867   */\n      dup3\n        /* \"#utility.yul\":6721:6868   */\n      tag_175\n      jump\t// in\n    tag_257:\n        /* \"#utility.yul\":6714:6868   */\n      swap2\n      pop\n        /* \"#utility.yul\":6885:6888   */\n      dup2\n        /* \"#utility.yul\":6878:6888   */\n      swap1\n      pop\n        /* \"#utility.yul\":6515:6894   */\n      swap2\n      swap1\n      pop\n      jump\t// out\n        /* \"#utility.yul\":6900:7070   */\n    tag_176:\n        /* \"#utility.yul\":7040:7062   */\n      0x52656e74207472616e73666572206661696c6564000000000000000000000000\n        /* \"#utility.yul\":7036:7037   */\n      0x00\n        /* \"#utility.yul\":7028:7034   */\n      dup3\n        /* \"#utility.yul\":7024:7038   */\n      add\n        /* \"#utility.yul\":7017:7063   */\n      mstore\n        /* \"#utility.yul\":6900:7070   */\n      pop\n      jump\t// out\n        /* \"#utility.yul\":7076:7442   */\n    tag_177:\n        /* \"#utility.yul\":7218:7221   */\n      0x00\n        /* \"#utility.yul\":7239:7306   */\n      tag_260\n        /* \"#utility.yul\":7303:7305   */\n      0x14\n        /* \"#utility.yul\":7298:7301   */\n      dup4\n        /* \"#utility.yul\":7239:7306   */\n      tag_165\n      jump\t// in\n    tag_260:\n        /* \"#utility.yul\":7232:7306   */\n      swap2\n      pop\n        /* \"#utility.yul\":7315:7408   */\n      tag_261\n        /* \"#utility.yul\":7404:7407   */\n      dup3\n        /* \"#utility.yul\":7315:7408   */\n      tag_176\n      jump\t// in\n    tag_261:\n        /* \"#utility.yul\":7433:7435   */\n      0x20\n        /* \"#utility.yul\":7428:7431   */\n      dup3\n        /* \"#utility.yul\":7424:7436   */\n      add\n        /* \"#utility.yul\":7417:7436   */\n      swap1\n      pop\n        /* \"#utility.yul\":7076:7442   */\n      swap2\n      swap1\n      pop\n      jump\t// out\n        /* \"#utility.yul\":7448:7867   */\n    tag_95:\n        /* \"#utility.yul\":7614:7618   */\n      0x00\n        /* \"#utility.yul\":7652:7654   */\n      0x20\n        /* \"#utility.yul\":7641:7650   */\n      dup3\n        /* \"#utility.yul\":7637:7655   */\n      add\n        /* \"#utility.yul\":7629:7655   */\n      swap1\n      pop\n        /* \"#utility.yul\":7701:7710   */\n      dup2\n        /* \"#utility.yul\":7695:7699   */\n      dup2\n        /* \"#utility.yul\":7691:7711   */\n      sub\n        /* \"#utility.yul\":7687:7688   */\n      0x00\n        /* \"#utility.yul\":7676:7685   */\n      dup4\n        /* \"#utility.yul\":7672:7689   */\n      add\n        /* \"#utility.yul\":7665:7712   */\n      mstore\n        /* \"#utility.yul\":7729:7860   */\n      tag_263\n        /* \"#utility.yul\":7855:7859   */\n      dup2\n        /* \"#utility.yul\":7729:7860   */\n      tag_177\n      jump\t// in\n    tag_263:\n        /* \"#utility.yul\":7721:7860   */\n      swap1\n      pop\n        /* \"#utility.yul\":7448:7867   */\n      swap2\n      swap1\n      pop\n      jump\t// out\n        /* \"#utility.yul\":7873:8036   */\n    tag_178:\n        /* \"#utility.yul\":8013:8028   */\n      0x526566756e64206661696c656400000000000000000000000000000000000000\n        /* \"#utility.yul\":8009:8010   */\n      0x00\n        /* \"#utility.yul\":8001:8007   */\n      dup3\n        /* \"#utility.yul\":7997:8011   */\n      add\n        /* \"#utility.yul\":7990:8029   */\n      mstore\n        /* \"#utility.yul\":7873:8036   */\n      pop\n      jump\t// out\n        /* \"#utility.yul\":8042:8408   */\n    tag_179:\n        /* \"#utility.yul\":8184:8187   */\n      0x00\n        /* \"#utility.yul\":8205:8272   */\n      tag_266\n        /* \"#utility.yul\":8269:8271   */\n      0x0d\n        /* \"#utility.yul\":8264:8267   */\n      dup4\n        /* \"#utility.yul\":8205:8272   */\n      tag_165\n      jump\t// in\n    tag_266:\n        /* \"#utility.yul\":8198:8272   */\n      swap2\n      pop\n        /* \"#utility.yul\":8281:8374   */\n      tag_267\n        /* \"#utility.yul\":8370:8373   */\n      dup3\n        /* \"#utility.yul\":8281:8374   */\n      tag_178\n      jump\t// in\n    tag_267:\n        /* \"#utility.yul\":8399:8401   */\n      0x20\n        /* \"#utility.yul\":8394:8397   */\n      dup3\n        /* \"#utility.yul\":8390:8402   */\n      add\n        /* \"#utility.yul\":8383:8402   */\n      swap1\n      pop\n        /* \"#utility.yul\":8042:8408   */\n      swap2\n      swap1\n      pop\n      jump\t// out\n        /* \"#utility.yul\":8414:8833   */\n    tag_110:\n        /* \"#utility.yul\":8580:8584   */\n      0x00\n        /* \"#utility.yul\":8618:8620   */\n      0x20\n        /* \"#utility.yul\":8607:8616   */\n      dup3\n        /* \"#utility.yul\":8603:8621   */\n      add\n        /* \"#utility.yul\":8595:8621   */\n      swap1\n      pop\n        /* \"#utility.yul\":8667:8676   */\n      dup2\n        /* \"#utility.yul\":8661:8665   */\n      dup2\n        /* \"#utility.yul\":8657:8677   */\n      sub\n        /* \"#utility.yul\":8653:8654   */\n      0x00\n        /* \"#utility.yul\":8642:8651   */\n      dup4\n        /* \"#utility.yul\":8638:8655   */\n      add\n        /* \"#utility.yul\":8631:8678   */\n      mstore\n        /* \"#utility.yul\":8695:8826   */\n      tag_269\n        /* \"#utility.yul\":8821:8825   */\n      dup2\n        /* \"#utility.yul\":8695:8826   */\n      tag_179\n      jump\t// in\n    tag_269:\n        /* \"#utility.yul\":8687:8826   */\n      swap1\n      pop\n        /* \"#utility.yul\":8414:8833   */\n      swap2\n      swap1\n      pop\n      jump\t// out\n        /* \"#utility.yul\":8839:9012   */\n    tag_180:\n        /* \"#utility.yul\":8979:9004   */\n      0x4465706f736974207472616e73666572206661696c6564000000000000000000\n        /* \"#utility.yul\":8975:8976   */\n      0x00\n        /* \"#utility.yul\":8967:8973   */\n      dup3\n        /* \"#utility.yul\":8963:8977   */\n      add\n        /* \"#utility.yul\":8956:9005   */\n      mstore\n        /* \"#utility.yul\":8839:9012   */\n      pop\n      jump\t// out\n        /* \"#utility.yul\":9018:9384   */\n    tag_181:\n        /* \"#utility.yul\":9160:9163   */\n      0x00\n        /* \"#utility.yul\":9181:9248   */\n      tag_272\n        /* \"#utility.yul\":9245:9247   */\n      0x17\n        /* \"#utility.yul\":9240:9243   */\n      dup4\n        /* \"#utility.yul\":9181:9248   */\n      tag_165\n      jump\t// in\n    tag_272:\n        /* \"#utility.yul\":9174:9248   */\n      swap2\n      pop\n        /* \"#utility.yul\":9257:9350   */\n      tag_273\n        /* \"#utility.yul\":9346:9349   */\n      dup3\n        /* \"#utility.yul\":9257:9350   */\n      tag_180\n      jump\t// in\n    tag_273:\n        /* \"#utility.yul\":9375:9377   */\n      0x20\n        /* \"#utility.yul\":9370:9373   */\n      dup3\n        /* \"#utility.yul\":9366:9378   */\n      add\n        /* \"#utility.yul\":9359:9378   */\n      swap1\n      pop\n        /* \"#utility.yul\":9018:9384   */\n      swap2\n      swap1\n      pop\n      jump\t// out\n        /* \"#utility.yul\":9390:9809   */\n    tag_118:\n        /* \"#utility.yul\":9556:9560   */\n      0x00\n        /* \"#utility.yul\":9594:9596   */\n      0x20\n        /* \"#utility.yul\":9583:9592   */\n      dup3\n        /* \"#utility.yul\":9579:9597   */\n      add\n        /* \"#utility.yul\":9571:9597   */\n      swap1\n      pop\n        /* \"#utility.yul\":9643:9652   */\n      dup2\n        /* \"#utility.yul\":9637:9641   */\n      dup2\n        /* \"#utility.yul\":9633:9653   */\n      sub\n        /* \"#utility.yul\":9629:9630   */\n      0x00\n        /* \"#utility.yul\":9618:9627   */\n      dup4\n        /* \"#utility.yul\":9614:9631   */\n      add\n        /* \"#utility.yul\":9607:9654   */\n      mstore\n        /* \"#utility.yul\":9671:9802   */\n      tag_275\n        /* \"#utility.yul\":9797:9801   */\n      dup2\n        /* \"#utility.yul\":9671:9802   */\n      tag_181\n      jump\t// in\n    tag_275:\n        /* \"#utility.yul\":9663:9802   */\n      swap1\n      pop\n        /* \"#utility.yul\":9390:9809   */\n      swap2\n      swap1\n      pop\n      jump\t// out\n        /* \"#utility.yul\":9815:9977   */\n    tag_182:\n        /* \"#utility.yul\":9955:9969   */\n      0x5374696c6c206163746976650000000000000000000000000000000000000000\n        /* \"#utility.yul\":9951:9952   */\n      0x00\n        /* \"#utility.yul\":9943:9949   */\n      dup3\n        /* \"#utility.yul\":9939:9953   */\n      add\n        /* \"#utility.yul\":9932:9970   */\n      mstore\n        /* \"#utility.yul\":9815:9977   */\n      pop\n      jump\t// out\n        /* \"#utility.yul\":9983:10349   */\n    tag_183:\n        /* \"#utility.yul\":10125:10128   */\n      0x00\n        /* \"#utility.yul\":10146:10213   */\n      tag_278\n        /* \"#utility.yul\":10210:10212   */\n      0x0c\n        /* \"#utility.yul\":10205:10208   */\n      dup4\n        /* \"#utility.yul\":10146:10213   */\n      tag_165\n      jump\t// in\n    tag_278:\n        /* \"#utility.yul\":10139:10213   */\n      swap2\n      pop\n        /* \"#utility.yul\":10222:10315   */\n      tag_279\n        /* \"#utility.yul\":10311:10314   */\n      dup3\n        /* \"#utility.yul\":10222:10315   */\n      tag_182\n      jump\t// in\n    tag_279:\n        /* \"#utility.yul\":10340:10342   */\n      0x20\n        /* \"#utility.yul\":10335:10338   */\n      dup3\n        /* \"#utility.yul\":10331:10343   */\n      add\n        /* \"#utility.yul\":10324:10343   */\n      swap1\n      pop\n        /* \"#utility.yul\":9983:10349   */\n      swap2\n      swap1\n      pop\n      jump\t// out\n        /* \"#utility.yul\":10355:10774   */\n    tag_123:\n        /* \"#utility.yul\":10521:10525   */\n      0x00\n        /* \"#utility.yul\":10559:10561   */\n      0x20\n        /* \"#utility.yul\":10548:10557   */\n      dup3\n        /* \"#utility.yul\":10544:10562   */\n      add\n        /* \"#utility.yul\":10536:10562   */\n      swap1\n      pop\n        /* \"#utility.yul\":10608:10617   */\n      dup2\n        /* \"#utility.yul\":10602:10606   */\n      dup2\n        /* \"#utility.yul\":10598:10618   */\n      sub\n        /* \"#utility.yul\":10594:10595   */\n      0x00\n        /* \"#utility.yul\":10583:10592   */\n      dup4\n        /* \"#utility.yul\":10579:10596   */\n      add\n        /* \"#utility.yul\":10572:10619   */\n      mstore\n        /* \"#utility.yul\":10636:10767   */\n      tag_281\n        /* \"#utility.yul\":10762:10766   */\n      dup2\n        /* \"#utility.yul\":10636:10767   */\n      tag_183\n      jump\t// in\n    tag_281:\n        /* \"#utility.yul\":10628:10767   */\n      swap1\n      pop\n        /* \"#utility.yul\":10355:10774   */\n      swap2\n      swap1\n      pop\n      jump\t// out\n        /* \"#utility.yul\":10780:10944   */\n    tag_184:\n        /* \"#utility.yul\":10920:10936   */\n      0x416c726561647920636c6f736564000000000000000000000000000000000000\n        /* \"#utility.yul\":10916:10917   */\n      0x00\n        /* \"#utility.yul\":10908:10914   */\n      dup3\n        /* \"#utility.yul\":10904:10918   */\n      add\n        /* \"#utility.yul\":10897:10937   */\n      mstore\n        /* \"#utility.yul\":10780:10944   */\n      pop\n      jump\t// out\n        /* \"#utility.yul\":10950:11316   */\n    tag_185:\n        /* \"#utility.yul\":11092:11095   */\n      0x00\n        /* \"#utility.yul\":11113:11180   */\n      tag_284\n        /* \"#utility.yul\":11177:11179   */\n      0x0e\n        /* \"#utility.yul\":11172:11175   */\n      dup4\n        /* \"#utility.yul\":11113:11180   */\n      tag_165\n      jump\t// in\n    tag_284:\n        /* \"#utility.yul\":11106:11180   */\n      swap2\n      pop\n        /* \"#utility.yul\":11189:11282   */\n      tag_285\n        /* \"#utility.yul\":11278:11281   */\n      dup3\n        /* \"#utility.yul\":11189:11282   */\n      tag_184\n      jump\t// in\n    tag_285:\n        /* \"#utility.yul\":11307:11309   */\n      0x20\n        /* \"#utility.yul\":11302:11305   */\n      dup3\n        /* \"#utility.yul\":11298:11310   */\n      add\n        /* \"#utility.yul\":11291:11310   */\n      swap1\n      pop\n        /* \"#utility.yul\":10950:11316   */\n      swap2\n      swap1\n      pop\n      jump\t// out\n        /* \"#utility.yul\":11322:11741   */\n    tag_126:\n        /* \"#utility.yul\":11488:11492   */\n      0x00\n        /* \"#utility.yul\":11526:11528   */\n      0x20\n        /* \"#utility.yul\":11515:11524   */\n      dup3\n        /* \"#utility.yul\":11511:11529   */\n      add\n        /* \"#utility.yul\":11503:11529   */\n      swap1\n      pop\n        /* \"#utility.yul\":11575:11584   */\n      dup2\n        /* \"#utility.yul\":11569:11573   */\n      dup2\n        /* \"#utility.yul\":11565:11585   */\n      sub\n        /* \"#utility.yul\":11561:11562   */\n      0x00\n        /* \"#utility.yul\":11550:11559   */\n      dup4\n        /* \"#utility.yul\":11546:11563   */\n      add\n        /* \"#utility.yul\":11539:11586   */\n      mstore\n        /* \"#utility.yul\":11603:11734   */\n      tag_287\n        /* \"#utility.yul\":11729:11733   */\n      dup2\n        /* \"#utility.yul\":11603:11734   */\n      tag_185\n      jump\t// in\n    tag_287:\n        /* \"#utility.yul\":11595:11734   */\n      swap1\n      pop\n        /* \"#utility.yul\":11322:11741   */\n      swap2\n      swap1\n      pop\n      jump\t// out\n        /* \"#utility.yul\":11747:11915   */\n    tag_186:\n        /* \"#utility.yul\":11887:11907   */\n      0x4175746f20726566756e64206661696c65640000000000000000000000000000\n        /* \"#utility.yul\":11883:11884   */\n      0x00\n        /* \"#utility.yul\":11875:11881   */\n      dup3\n        /* \"#utility.yul\":11871:11885   */\n      add\n        /* \"#utility.yul\":11864:11908   */\n      mstore\n        /* \"#utility.yul\":11747:11915   */\n      pop\n      jump\t// out\n        /* \"#utility.yul\":11921:12287   */\n    tag_187:\n        /* \"#utility.yul\":12063:12066   */\n      0x00\n        /* \"#utility.yul\":12084:12151   */\n      tag_290\n        /* \"#utility.yul\":12148:12150   */\n      0x12\n        /* \"#utility.yul\":12143:12146   */\n      dup4\n        /* \"#utility.yul\":12084:12151   */\n      tag_165\n      jump\t// in\n    tag_290:\n        /* \"#utility.yul\":12077:12151   */\n      swap2\n      pop\n        /* \"#utility.yul\":12160:12253   */\n      tag_291\n        /* \"#utility.yul\":12249:12252   */\n      dup3\n        /* \"#utility.yul\":12160:12253   */\n      tag_186\n      jump\t// in\n    tag_291:\n        /* \"#utility.yul\":12278:12280   */\n      0x20\n        /* \"#utility.yul\":12273:12276   */\n      dup3\n        /* \"#utility.yul\":12269:12281   */\n      add\n        /* \"#utility.yul\":12262:12281   */\n      swap1\n      pop\n        /* \"#utility.yul\":11921:12287   */\n      swap2\n      swap1\n      pop\n      jump\t// out\n        /* \"#utility.yul\":12293:12712   */\n    tag_133:\n        /* \"#utility.yul\":12459:12463   */\n      0x00\n        /* \"#utility.yul\":12497:12499   */\n      0x20\n        /* \"#utility.yul\":12486:12495   */\n      dup3\n        /* \"#utility.yul\":12482:12500   */\n      add\n        /* \"#utility.yul\":12474:12500   */\n      swap1\n      pop\n        /* \"#utility.yul\":12546:12555   */\n      dup2\n        /* \"#utility.yul\":12540:12544   */\n      dup2\n        /* \"#utility.yul\":12536:12556   */\n      sub\n        /* \"#utility.yul\":12532:12533   */\n      0x00\n        /* \"#utility.yul\":12521:12530   */\n      dup4\n        /* \"#utility.yul\":12517:12534   */\n      add\n        /* \"#utility.yul\":12510:12557   */\n      mstore\n        /* \"#utility.yul\":12574:12705   */\n      tag_293\n        /* \"#utility.yul\":12700:12704   */\n      dup2\n        /* \"#utility.yul\":12574:12705   */\n      tag_187\n      jump\t// in\n    tag_293:\n        /* \"#utility.yul\":12566:12705   */\n      swap1\n      pop\n        /* \"#utility.yul\":12293:12712   */\n      swap2\n      swap1\n      pop\n      jump\t// out\n        /* \"#utility.yul\":12718:12878   */\n    tag_188:\n        /* \"#utility.yul\":12858:12870   */\n      0x4e6f742074656e616e7400000000000000000000000000000000000000000000\n        /* \"#utility.yul\":12854:12855   */\n      0x00\n        /* \"#utility.yul\":12846:12852   */\n      dup3\n        /* \"#utility.yul\":12842:12856   */\n      add\n        /* \"#utility.yul\":12835:12871   */\n      mstore\n        /* \"#utility.yul\":12718:12878   */\n      pop\n      jump\t// out\n        /* \"#utility.yul\":12884:13250   */\n    tag_189:\n        /* \"#utility.yul\":13026:13029   */\n      0x00\n        /* \"#utility.yul\":13047:13114   */\n      tag_296\n        /* \"#utility.yul\":13111:13113   */\n      0x0a\n        /* \"#utility.yul\":13106:13109   */\n      dup4\n        /* \"#utility.yul\":13047:13114   */\n      tag_165\n      jump\t// in\n    tag_296:\n        /* \"#utility.yul\":13040:13114   */\n      swap2\n      pop\n        /* \"#utility.yul\":13123:13216   */\n      tag_297\n        /* \"#utility.yul\":13212:13215   */\n      dup3\n        /* \"#utility.yul\":13123:13216   */\n      tag_188\n      jump\t// in\n    tag_297:\n        /* \"#utility.yul\":13241:13243   */\n      0x20\n        /* \"#utility.yul\":13236:13239   */\n      dup3\n        /* \"#utility.yul\":13232:13244   */\n      add\n        /* \"#utility.yul\":13225:13244   */\n      swap1\n      pop\n        /* \"#utility.yul\":12884:13250   */\n      swap2\n      swap1\n      pop\n      jump\t// out\n        /* \"#utility.yul\":13256:13675   */\n    tag_137:\n        /* \"#utility.yul\":13422:13426   */\n      0x00\n        /* \"#utility.yul\":13460:13462   */\n      0x20\n        /* \"#utility.yul\":13449:13458   */\n      dup3\n        /* \"#utility.yul\":13445:13463   */\n      add\n        /* \"#utility.yul\":13437:13463   */\n      swap1\n      pop\n        /* \"#utility.yul\":13509:13518   */\n      dup2\n        /* \"#utility.yul\":13503:13507   */\n      dup2\n        /* \"#utility.yul\":13499:13519   */\n      sub\n        /* \"#utility.yul\":13495:13496   */\n      0x00\n        /* \"#utility.yul\":13484:13493   */\n      dup4\n        /* \"#utility.yul\":13480:13497   */\n      add\n        /* \"#utility.yul\":13473:13520   */\n      mstore\n        /* \"#utility.yul\":13537:13668   */\n      tag_299\n        /* \"#utility.yul\":13663:13667   */\n      dup2\n        /* \"#utility.yul\":13537:13668   */\n      tag_189\n      jump\t// in\n    tag_299:\n        /* \"#utility.yul\":13529:13668   */\n      swap1\n      pop\n        /* \"#utility.yul\":13256:13675   */\n      swap2\n      swap1\n      pop\n      jump\t// out\n        /* \"#utility.yul\":13681:13843   */\n    tag_190:\n        /* \"#utility.yul\":13821:13835   */\n      0x57726f6e6720616d6f756e740000000000000000000000000000000000000000\n        /* \"#utility.yul\":13817:13818   */\n      0x00\n        /* \"#utility.yul\":13809:13815   */\n      dup3\n        /* \"#utility.yul\":13805:13819   */\n      add\n        /* \"#utility.yul\":13798:13836   */\n      mstore\n        /* \"#utility.yul\":13681:13843   */\n      pop\n      jump\t// out\n        /* \"#utility.yul\":13849:14215   */\n    tag_191:\n        /* \"#utility.yul\":13991:13994   */\n      0x00\n        /* \"#utility.yul\":14012:14079   */\n      tag_302\n        /* \"#utility.yul\":14076:14078   */\n      0x0c\n        /* \"#utility.yul\":14071:14074   */\n      dup4\n        /* \"#utility.yul\":14012:14079   */\n      tag_165\n      jump\t// in\n    tag_302:\n        /* \"#utility.yul\":14005:14079   */\n      swap2\n      pop\n        /* \"#utility.yul\":14088:14181   */\n      tag_303\n        /* \"#utility.yul\":14177:14180   */\n      dup3\n        /* \"#utility.yul\":14088:14181   */\n      tag_190\n      jump\t// in\n    tag_303:\n        /* \"#utility.yul\":14206:14208   */\n      0x20\n        /* \"#utility.yul\":14201:14204   */\n      dup3\n        /* \"#utility.yul\":14197:14209   */\n      add\n        /* \"#utility.yul\":14190:14209   */\n      swap1\n      pop\n        /* \"#utility.yul\":13849:14215   */\n      swap2\n      swap1\n      pop\n      jump\t// out\n        /* \"#utility.yul\":14221:14640   */\n    tag_144:\n        /* \"#utility.yul\":14387:14391   */\n      0x00\n        /* \"#utility.yul\":14425:14427   */\n      0x20\n        /* \"#utility.yul\":14414:14423   */\n      dup3\n        /* \"#utility.yul\":14410:14428   */\n      add\n        /* \"#utility.yul\":14402:14428   */\n      swap1\n      pop\n        /* \"#utility.yul\":14474:14483   */\n      dup2\n        /* \"#utility.yul\":14468:14472   */\n      dup2\n        /* \"#utility.yul\":14464:14484   */\n      sub\n        /* \"#utility.yul\":14460:14461   */\n      0x00\n        /* \"#utility.yul\":14449:14458   */\n      dup4\n        /* \"#utility.yul\":14445:14462   */\n      add\n        /* \"#utility.yul\":14438:14485   */\n      mstore\n        /* \"#utility.yul\":14502:14633   */\n      tag_305\n        /* \"#utility.yul\":14628:14632   */\n      dup2\n        /* \"#utility.yul\":14502:14633   */\n      tag_191\n      jump\t// in\n    tag_305:\n        /* \"#utility.yul\":14494:14633   */\n      swap1\n      pop\n        /* \"#utility.yul\":14221:14640   */\n      swap2\n      swap1\n      pop\n      jump\t// out\n        /* \"#utility.yul\":14646:14810   */\n    tag_192:\n        /* \"#utility.yul\":14786:14802   */\n      0x416c72656164792072656e746564000000000000000000000000000000000000\n        /* \"#utility.yul\":14782:14783   */\n      0x00\n        /* \"#utility.yul\":14774:14780   */\n      dup3\n        /* \"#utility.yul\":14770:14784   */\n      add\n        /* \"#utility.yul\":14763:14803   */\n      mstore\n        /* \"#utility.yul\":14646:14810   */\n      pop\n      jump\t// out\n        /* \"#utility.yul\":14816:15182   */\n    tag_193:\n        /* \"#utility.yul\":14958:14961   */\n      0x00\n        /* \"#utility.yul\":14979:15046   */\n      tag_308\n        /* \"#utility.yul\":15043:15045   */\n      0x0e\n        /* \"#utility.yul\":15038:15041   */\n      dup4\n        /* \"#utility.yul\":14979:15046   */\n      tag_165\n      jump\t// in\n    tag_308:\n        /* \"#utility.yul\":14972:15046   */\n      swap2\n      pop\n        /* \"#utility.yul\":15055:15148   */\n      tag_309\n        /* \"#utility.yul\":15144:15147   */\n      dup3\n        /* \"#utility.yul\":15055:15148   */\n      tag_192\n      jump\t// in\n    tag_309:\n        /* \"#utility.yul\":15173:15175   */\n      0x20\n        /* \"#utility.yul\":15168:15171   */\n      dup3\n        /* \"#utility.yul\":15164:15176   */\n      add\n        /* \"#utility.yul\":15157:15176   */\n      swap1\n      pop\n        /* \"#utility.yul\":14816:15182   */\n      swap2\n      swap1\n      pop\n      jump\t// out\n        /* \"#utility.yul\":15188:15607   */\n    tag_148:\n        /* \"#utility.yul\":15354:15358   */\n      0x00\n        /* \"#utility.yul\":15392:15394   */\n      0x20\n        /* \"#utility.yul\":15381:15390   */\n      dup3\n        /* \"#utility.yul\":15377:15395   */\n      add\n        /* \"#utility.yul\":15369:15395   */\n      swap1\n      pop\n        /* \"#utility.yul\":15441:15450   */\n      dup2\n        /* \"#utility.yul\":15435:15439   */\n      dup2\n        /* \"#utility.yul\":15431:15451   */\n      sub\n        /* \"#utility.yul\":15427:15428   */\n      0x00\n        /* \"#utility.yul\":15416:15425   */\n      dup4\n        /* \"#utility.yul\":15412:15429   */\n      add\n        /* \"#utility.yul\":15405:15452   */\n      mstore\n        /* \"#utility.yul\":15469:15600   */\n      tag_311\n        /* \"#utility.yul\":15595:15599   */\n      dup2\n        /* \"#utility.yul\":15469:15600   */\n      tag_193\n      jump\t// in\n    tag_311:\n        /* \"#utility.yul\":15461:15600   */\n      swap1\n      pop\n        /* \"#utility.yul\":15188:15607   */\n      swap2\n      swap1\n      pop\n      jump\t// out\n        /* \"#utility.yul\":15613:15780   */\n    tag_194:\n        /* \"#utility.yul\":15753:15772   */\n      0x496e636f7272656374207061796d656e74000000000000000000000000000000\n        /* \"#utility.yul\":15749:15750   */\n      0x00\n        /* \"#utility.yul\":15741:15747   */\n      dup3\n        /* \"#utility.yul\":15737:15751   */\n      add\n        /* \"#utility.yul\":15730:15773   */\n      mstore\n        /* \"#utility.yul\":15613:15780   */\n      pop\n      jump\t// out\n        /* \"#utility.yul\":15786:16152   */\n    tag_195:\n        /* \"#utility.yul\":15928:15931   */\n      0x00\n        /* \"#utility.yul\":15949:16016   */\n      tag_314\n        /* \"#utility.yul\":16013:16015   */\n      0x11\n        /* \"#utility.yul\":16008:16011   */\n      dup4\n        /* \"#utility.yul\":15949:16016   */\n      tag_165\n      jump\t// in\n    tag_314:\n        /* \"#utility.yul\":15942:16016   */\n      swap2\n      pop\n        /* \"#utility.yul\":16025:16118   */\n      tag_315\n        /* \"#utility.yul\":16114:16117   */\n      dup3\n        /* \"#utility.yul\":16025:16118   */\n      tag_194\n      jump\t// in\n    tag_315:\n        /* \"#utility.yul\":16143:16145   */\n      0x20\n        /* \"#utility.yul\":16138:16141   */\n      dup3\n        /* \"#utility.yul\":16134:16146   */\n      add\n        /* \"#utility.yul\":16127:16146   */\n      swap1\n      pop\n        /* \"#utility.yul\":15786:16152   */\n      swap2\n      swap1\n      pop\n      jump\t// out\n        /* \"#utility.yul\":16158:16577   */\n    tag_152:\n        /* \"#utility.yul\":16324:16328   */\n      0x00\n        /* \"#utility.yul\":16362:16364   */\n      0x20\n        /* \"#utility.yul\":16351:16360   */\n      dup3\n        /* \"#utility.yul\":16347:16365   */\n      add\n        /* \"#utility.yul\":16339:16365   */\n      swap1\n      pop\n        /* \"#utility.yul\":16411:16420   */\n      dup2\n        /* \"#utility.yul\":16405:16409   */\n      dup2\n        /* \"#utility.yul\":16401:16421   */\n      sub\n        /* \"#utility.yul\":16397:16398   */\n      0x00\n        /* \"#utility.yul\":16386:16395   */\n      dup4\n        /* \"#utility.yul\":16382:16399   */\n      add\n        /* \"#utility.yul\":16375:16422   */\n      mstore\n        /* \"#utility.yul\":16439:16570   */\n      tag_317\n        /* \"#utility.yul\":16565:16569   */\n      dup2\n        /* \"#utility.yul\":16439:16570   */\n      tag_195\n      jump\t// in\n    tag_317:\n        /* \"#utility.yul\":16431:16570   */\n      swap1\n      pop\n        /* \"#utility.yul\":16158:16577   */\n      swap2\n      swap1\n      pop\n      jump\t// out\n\n    auxdata: 0xa2646970667358221220ec94a3dedfa3044200d71d3dfec2bf67158bc8e255d7e8645ffba25ea47a146864736f6c634300081f0033\n}\n",
				"bytecode": {
					"linkReferences": {},
					"object": "608060405234801561000f575f5ffd5b506040516114b53803806114b5833981810160405281019061003191906100d2565b335f5f6101000a81548173ffffffffffffffffffffffffffffffffffffffff021916908373ffffffffffffffffffffffffffffffffffffffff1602179055508260028190555081600381905550620151808161008d919061014f565b600681905550505050610190565b5f5ffd5b5f819050919050565b6100b18161009f565b81146100bb575f5ffd5b50565b5f815190506100cc816100a8565b92915050565b5f5f5f606084860312156100e9576100e861009b565b5b5f6100f6868287016100be565b9350506020610107868287016100be565b9250506040610118868287016100be565b9150509250925092565b7f4e487b71000000000000000000000000000000000000000000000000000000005f52601160045260245ffd5b5f6101598261009f565b91506101648361009f565b92508282026101728161009f565b9150828204841483151761018957610188610122565b5b5092915050565b6113188061019d5f395ff3fe6080604052600436106100dc575f3560e01c8063b6d6f55b1161007e578063e14f4cca11610058578063e14f4cca1461025a578063e1d703e414610264578063f8ef1e131461028e578063fe1ac79e146102b8576100dc565b8063b6d6f55b146101f2578063d5ec1b161461021a578063dc1997ea14610230576100dc565b8063220e5ab3116100ba578063220e5ab31461015e57806378e97925146101885780638cbe5104146101b2578063adf07791146101c8576100dc565b806302fb0c5e146100e05780630fb5a6b41461010a57806312065fe014610134575b5f5ffd5b3480156100eb575f5ffd5b506100f46102c2565b6040516101019190610bee565b60405180910390f35b348015610115575f5ffd5b5061011e6102d4565b60405161012b9190610c1f565b60405180910390f35b34801561013f575f5ffd5b506101486102da565b6040516101559190610c1f565b60405180910390f35b348015610169575f5ffd5b506101726102e1565b60405161017f9190610c1f565b60405180910390f35b348015610193575f5ffd5b5061019c6102e7565b6040516101a99190610c1f565b60405180910390f35b3480156101bd575f5ffd5b506101c66102ed565b005b3480156101d3575f5ffd5b506101dc6104f0565b6040516101e99190610c77565b60405180910390f35b3480156101fd575f5ffd5b5061021860048036038101906102139190610cbe565b610515565b005b348015610225575f5ffd5b5061022e6107b0565b005b34801561023b575f5ffd5b50610244610937565b6040516102519190610c77565b60405180910390f35b61026261095b565b005b34801561026f575f5ffd5b50610278610a7e565b6040516102859190610c1f565b60405180910390f35b348015610299575f5ffd5b506102a2610a84565b6040516102af9190610c1f565b60405180910390f35b6102c0610a8a565b005b60075f9054906101000a900460ff1681565b60065481565b5f47905090565b60035481565b60045481565b5f5f9054906101000a900473ffffffffffffffffffffffffffffffffffffffff1673ffffffffffffffffffffffffffffffffffffffff163373ffffffffffffffffffffffffffffffffffffffff161461037b576040517f08c379a000000000000000000000000000000000000000000000000000000000815260040161037290610d43565b60405180910390fd5b60075f9054906101000a900460ff166103c9576040517f08c379a00000000000000000000000000000000000000000000000000000000081526004016103c090610dab565b60405180910390fd5b62278d006005546103da9190610df6565b42101561041c576040517f08c379a000000000000000000000000000000000000000000000000000000000815260040161041390610e73565b60405180910390fd5b426005819055505f5f5f9054906101000a900473ffffffffffffffffffffffffffffffffffffffff1673ffffffffffffffffffffffffffffffffffffffff1660025460405161046a90610ebe565b5f6040518083038185875af1925050503d805f81146104a4576040519150601f19603f3d011682016040523d82523d5f602084013e6104a9565b606091505b50509050806104ed576040517f08c379a00000000000000000000000000000000000000000000000000000000081526004016104e490610f1c565b60405180910390fd5b50565b60015f9054906101000a900473ffffffffffffffffffffffffffffffffffffffff1681565b5f5f9054906101000a900473ffffffffffffffffffffffffffffffffffffffff1673ffffffffffffffffffffffffffffffffffffffff163373ffffffffffffffffffffffffffffffffffffffff16146105a3576040517f08c379a000000000000000000000000000000000000000000000000000000000815260040161059a90610d43565b60405180910390fd5b60075f9054906101000a900460ff166105f1576040517f08c379a00000000000000000000000000000000000000000000000000000000081526004016105e890610dab565b60405180910390fd5b5f60075f6101000a81548160ff02191690831515021790555080156106e1575f60015f9054906101000a900473ffffffffffffffffffffffffffffffffffffffff1673ffffffffffffffffffffffffffffffffffffffff1660035460405161065890610ebe565b5f6040518083038185875af1925050503d805f8114610692576040519150601f19603f3d011682016040523d82523d5f602084013e610697565b606091505b50509050806106db576040517f08c379a00000000000000000000000000000000000000000000000000000000081526004016106d290610f84565b60405180910390fd5b506107ad565b5f5f5f9054906101000a900473ffffffffffffffffffffffffffffffffffffffff1673ffffffffffffffffffffffffffffffffffffffff1660035460405161072890610ebe565b5f6040518083038185875af1925050503d805f8114610762576040519150601f19603f3d011682016040523d82523d5f602084013e610767565b606091505b50509050806107ab576040517f08c379a00000000000000000000000000000000000000000000000000000000081526004016107a290610fec565b60405180910390fd5b505b50565b6006546004546107c09190610df6565b421015610802576040517f08c379a00000000000000000000000000000000000000000000000000000000081526004016107f990611054565b60405180910390fd5b60075f9054906101000a900460ff16610850576040517f08c379a0000000000000000000000000000000000000000000000000000000008152600401610847906110bc565b60405180910390fd5b5f60075f6101000a81548160ff0219169083151502179055505f60015f9054906101000a900473ffffffffffffffffffffffffffffffffffffffff1673ffffffffffffffffffffffffffffffffffffffff166003546040516108b190610ebe565b5f6040518083038185875af1925050503d805f81146108eb576040519150601f19603f3d011682016040523d82523d5f602084013e6108f0565b606091505b5050905080610934576040517f08c379a000000000000000000000000000000000000000000000000000000000815260040161092b90611124565b60405180910390fd5b50565b5f5f9054906101000a900473ffffffffffffffffffffffffffffffffffffffff1681565b60015f9054906101000a900473ffffffffffffffffffffffffffffffffffffffff1673ffffffffffffffffffffffffffffffffffffffff163373ffffffffffffffffffffffffffffffffffffffff16146109ea576040517f08c379a00000000000000000000000000000000000000000000000000000000081526004016109e19061118c565b60405180910390fd5b60075f9054906101000a900460ff16610a38576040517f08c379a0000000000000000000000000000000000000000000000000000000008152600401610a2f90610dab565b60405180910390fd5b6002543414610a7c576040517f08c379a0000000000000000000000000000000000000000000000000000000008152600401610a73906111f4565b60405180910390fd5b565b60055481565b60025481565b5f73ffffffffffffffffffffffffffffffffffffffff1660015f9054906101000a900473ffffffffffffffffffffffffffffffffffffffff1673ffffffffffffffffffffffffffffffffffffffff1614610b19576040517f08c379a0000000000000000000000000000000000000000000000000000000008152600401610b109061125c565b60405180910390fd5b600354600254610b299190610df6565b3414610b6a576040517f08c379a0000000000000000000000000000000000000000000000000000000008152600401610b61906112c4565b60405180910390fd5b3360015f6101000a81548173ffffffffffffffffffffffffffffffffffffffff021916908373ffffffffffffffffffffffffffffffffffffffff1602179055504260048190555042600581905550600160075f6101000a81548160ff021916908315150217905550565b5f8115159050919050565b610be881610bd4565b82525050565b5f602082019050610c015f830184610bdf565b92915050565b5f819050919050565b610c1981610c07565b82525050565b5f602082019050610c325f830184610c10565b92915050565b5f73ffffffffffffffffffffffffffffffffffffffff82169050919050565b5f610c6182610c38565b9050919050565b610c7181610c57565b82525050565b5f602082019050610c8a5f830184610c68565b92915050565b5f5ffd5b610c9d81610bd4565b8114610ca7575f5ffd5b50565b5f81359050610cb881610c94565b92915050565b5f60208284031215610cd357610cd2610c90565b5b5f610ce084828501610caa565b91505092915050565b5f82825260208201905092915050565b7f4e6f74206c616e646c6f726400000000000000000000000000000000000000005f82015250565b5f610d2d600c83610ce9565b9150610d3882610cf9565b602082019050919050565b5f6020820190508181035f830152610d5a81610d21565b9050919050565b7f436f6e7472616374206e6f7420616374697665000000000000000000000000005f82015250565b5f610d95601383610ce9565b9150610da082610d61565b602082019050919050565b5f6020820190508181035f830152610dc281610d89565b9050919050565b7f4e487b71000000000000000000000000000000000000000000000000000000005f52601160045260245ffd5b5f610e0082610c07565b9150610e0b83610c07565b9250828201905080821115610e2357610e22610dc9565b5b92915050565b7f546f6f206561726c7920746f20636c61696d00000000000000000000000000005f82015250565b5f610e5d601283610ce9565b9150610e6882610e29565b602082019050919050565b5f6020820190508181035f830152610e8a81610e51565b9050919050565b5f81905092915050565b50565b5f610ea95f83610e91565b9150610eb482610e9b565b5f82019050919050565b5f610ec882610e9e565b9150819050919050565b7f52656e74207472616e73666572206661696c65640000000000000000000000005f82015250565b5f610f06601483610ce9565b9150610f1182610ed2565b602082019050919050565b5f6020820190508181035f830152610f3381610efa565b9050919050565b7f526566756e64206661696c6564000000000000000000000000000000000000005f82015250565b5f610f6e600d83610ce9565b9150610f7982610f3a565b602082019050919050565b5f6020820190508181035f830152610f9b81610f62565b9050919050565b7f4465706f736974207472616e73666572206661696c65640000000000000000005f82015250565b5f610fd6601783610ce9565b9150610fe182610fa2565b602082019050919050565b5f6020820190508181035f83015261100381610fca565b9050919050565b7f5374696c6c2061637469766500000000000000000000000000000000000000005f82015250565b5f61103e600c83610ce9565b91506110498261100a565b602082019050919050565b5f6020820190508181035f83015261106b81611032565b9050919050565b7f416c726561647920636c6f7365640000000000000000000000000000000000005f82015250565b5f6110a6600e83610ce9565b91506110b182611072565b602082019050919050565b5f6020820190508181035f8301526110d38161109a565b9050919050565b7f4175746f20726566756e64206661696c656400000000000000000000000000005f82015250565b5f61110e601283610ce9565b9150611119826110da565b602082019050919050565b5f6020820190508181035f83015261113b81611102565b9050919050565b7f4e6f742074656e616e74000000000000000000000000000000000000000000005f82015250565b5f611176600a83610ce9565b915061118182611142565b602082019050919050565b5f6020820190508181035f8301526111a38161116a565b9050919050565b7f57726f6e6720616d6f756e7400000000000000000000000000000000000000005f82015250565b5f6111de600c83610ce9565b91506111e9826111aa565b602082019050919050565b5f6020820190508181035f83015261120b816111d2565b9050919050565b7f416c72656164792072656e7465640000000000000000000000000000000000005f82015250565b5f611246600e83610ce9565b915061125182611212565b602082019050919050565b5f6020820190508181035f8301526112738161123a565b9050919050565b7f496e636f7272656374207061796d656e740000000000000000000000000000005f82015250565b5f6112ae601183610ce9565b91506112b98261127a565b602082019050919050565b5f6020820190508181035f8301526112db816112a2565b905091905056fea2646970667358221220ec94a3dedfa3044200d71d3dfec2bf67158bc8e255d7e8645ffba25ea47a146864736f6c634300081f0033",
					"opcodes": "PUSH1 0x80 PUSH1 0x40 MSTORE CALLVALUE DUP1 ISZERO PUSH2 0xF JUMPI PUSH0 PUSH0 REVERT JUMPDEST POP PUSH1 0x40 MLOAD PUSH2 0x14B5 CODESIZE SUB DUP1 PUSH2 0x14B5 DUP4 CODECOPY DUP2 DUP2 ADD PUSH1 0x40 MSTORE DUP2 ADD SWAP1 PUSH2 0x31 SWAP2 SWAP1 PUSH2 0xD2 JUMP JUMPDEST CALLER PUSH0 PUSH0 PUSH2 0x100 EXP DUP2 SLOAD DUP2 PUSH20 0xFFFFFFFFFFFFFFFFFFFFFFFFFFFFFFFFFFFFFFFF MUL NOT AND SWAP1 DUP4 PUSH20 0xFFFFFFFFFFFFFFFFFFFFFFFFFFFFFFFFFFFFFFFF AND MUL OR SWAP1 SSTORE POP DUP3 PUSH1 0x2 DUP2 SWAP1 SSTORE POP DUP2 PUSH1 0x3 DUP2 SWAP1 SSTORE POP PUSH3 0x15180 DUP2 PUSH2 0x8D SWAP2 SWAP1 PUSH2 0x14F JUMP JUMPDEST PUSH1 0x6 DUP2 SWAP1 SSTORE POP POP POP POP PUSH2 0x190 JUMP JUMPDEST PUSH0 PUSH0 REVERT JUMPDEST PUSH0 DUP2 SWAP1 POP SWAP2 SWAP1 POP JUMP JUMPDEST PUSH2 0xB1 DUP2 PUSH2 0x9F JUMP JUMPDEST DUP2 EQ PUSH2 0xBB JUMPI PUSH0 PUSH0 REVERT JUMPDEST POP JUMP JUMPDEST PUSH0 DUP2 MLOAD SWAP1 POP PUSH2 0xCC DUP2 PUSH2 0xA8 JUMP JUMPDEST SWAP3 SWAP2 POP POP JUMP JUMPDEST PUSH0 PUSH0 PUSH0 PUSH1 0x60 DUP5 DUP7 SUB SLT ISZERO PUSH2 0xE9 JUMPI PUSH2 0xE8 PUSH2 0x9B JUMP JUMPDEST JUMPDEST PUSH0 PUSH2 0xF6 DUP7 DUP3 DUP8 ADD PUSH2 0xBE JUMP JUMPDEST SWAP4 POP POP PUSH1 0x20 PUSH2 0x107 DUP7 DUP3 DUP8 ADD PUSH2 0xBE JUMP JUMPDEST SWAP3 POP POP PUSH1 0x40 PUSH2 0x118 DUP7 DUP3 DUP8 ADD PUSH2 0xBE JUMP JUMPDEST SWAP2 POP POP SWAP3 POP SWAP3 POP SWAP3 JUMP JUMPDEST PUSH32 0x4E487B7100000000000000000000000000000000000000000000000000000000 PUSH0 MSTORE PUSH1 0x11 PUSH1 0x4 MSTORE PUSH1 0x24 PUSH0 REVERT JUMPDEST PUSH0 PUSH2 0x159 DUP3 PUSH2 0x9F JUMP JUMPDEST SWAP2 POP PUSH2 0x164 DUP4 PUSH2 0x9F JUMP JUMPDEST SWAP3 POP DUP3 DUP3 MUL PUSH2 0x172 DUP2 PUSH2 0x9F JUMP JUMPDEST SWAP2 POP DUP3 DUP3 DIV DUP5 EQ DUP4 ISZERO OR PUSH2 0x189 JUMPI PUSH2 0x188 PUSH2 0x122 JUMP JUMPDEST JUMPDEST POP SWAP3 SWAP2 POP POP JUMP JUMPDEST PUSH2 0x1318 DUP1 PUSH2 0x19D PUSH0 CODECOPY PUSH0 RETURN INVALID PUSH1 0x80 PUSH1 0x40 MSTORE PUSH1 0x4 CALLDATASIZE LT PUSH2 0xDC JUMPI PUSH0 CALLDATALOAD PUSH1 0xE0 SHR DUP1 PUSH4 0xB6D6F55B GT PUSH2 0x7E JUMPI DUP1 PUSH4 0xE14F4CCA GT PUSH2 0x58 JUMPI DUP1 PUSH4 0xE14F4CCA EQ PUSH2 0x25A JUMPI DUP1 PUSH4 0xE1D703E4 EQ PUSH2 0x264 JUMPI DUP1 PUSH4 0xF8EF1E13 EQ PUSH2 0x28E JUMPI DUP1 PUSH4 0xFE1AC79E EQ PUSH2 0x2B8 JUMPI PUSH2 0xDC JUMP JUMPDEST DUP1 PUSH4 0xB6D6F55B EQ PUSH2 0x1F2 JUMPI DUP1 PUSH4 0xD5EC1B16 EQ PUSH2 0x21A JUMPI DUP1 PUSH4 0xDC1997EA EQ PUSH2 0x230 JUMPI PUSH2 0xDC JUMP JUMPDEST DUP1 PUSH4 0x220E5AB3 GT PUSH2 0xBA JUMPI DUP1 PUSH4 0x220E5AB3 EQ PUSH2 0x15E JUMPI DUP1 PUSH4 0x78E97925 EQ PUSH2 0x188 JUMPI DUP1 PUSH4 0x8CBE5104 EQ PUSH2 0x1B2 JUMPI DUP1 PUSH4 0xADF07791 EQ PUSH2 0x1C8 JUMPI PUSH2 0xDC JUMP JUMPDEST DUP1 PUSH4 0x2FB0C5E EQ PUSH2 0xE0 JUMPI DUP1 PUSH4 0xFB5A6B4 EQ PUSH2 0x10A JUMPI DUP1 PUSH4 0x12065FE0 EQ PUSH2 0x134 JUMPI JUMPDEST PUSH0 PUSH0 REVERT JUMPDEST CALLVALUE DUP1 ISZERO PUSH2 0xEB JUMPI PUSH0 PUSH0 REVERT JUMPDEST POP PUSH2 0xF4 PUSH2 0x2C2 JUMP JUMPDEST PUSH1 0x40 MLOAD PUSH2 0x101 SWAP2 SWAP1 PUSH2 0xBEE JUMP JUMPDEST PUSH1 0x40 MLOAD DUP1 SWAP2 SUB SWAP1 RETURN JUMPDEST CALLVALUE DUP1 ISZERO PUSH2 0x115 JUMPI PUSH0 PUSH0 REVERT JUMPDEST POP PUSH2 0x11E PUSH2 0x2D4 JUMP JUMPDEST PUSH1 0x40 MLOAD PUSH2 0x12B SWAP2 SWAP1 PUSH2 0xC1F JUMP JUMPDEST PUSH1 0x40 MLOAD DUP1 SWAP2 SUB SWAP1 RETURN JUMPDEST CALLVALUE DUP1 ISZERO PUSH2 0x13F JUMPI PUSH0 PUSH0 REVERT JUMPDEST POP PUSH2 0x148 PUSH2 0x2DA JUMP JUMPDEST PUSH1 0x40 MLOAD PUSH2 0x155 SWAP2 SWAP1 PUSH2 0xC1F JUMP JUMPDEST PUSH1 0x40 MLOAD DUP1 SWAP2 SUB SWAP1 RETURN JUMPDEST CALLVALUE DUP1 ISZERO PUSH2 0x169 JUMPI PUSH0 PUSH0 REVERT JUMPDEST POP PUSH2 0x172 PUSH2 0x2E1 JUMP JUMPDEST PUSH1 0x40 MLOAD PUSH2 0x17F SWAP2 SWAP1 PUSH2 0xC1F JUMP JUMPDEST PUSH1 0x40 MLOAD DUP1 SWAP2 SUB SWAP1 RETURN JUMPDEST CALLVALUE DUP1 ISZERO PUSH2 0x193 JUMPI PUSH0 PUSH0 REVERT JUMPDEST POP PUSH2 0x19C PUSH2 0x2E7 JUMP JUMPDEST PUSH1 0x40 MLOAD PUSH2 0x1A9 SWAP2 SWAP1 PUSH2 0xC1F JUMP JUMPDEST PUSH1 0x40 MLOAD DUP1 SWAP2 SUB SWAP1 RETURN JUMPDEST CALLVALUE DUP1 ISZERO PUSH2 0x1BD JUMPI PUSH0 PUSH0 REVERT JUMPDEST POP PUSH2 0x1C6 PUSH2 0x2ED JUMP JUMPDEST STOP JUMPDEST CALLVALUE DUP1 ISZERO PUSH2 0x1D3 JUMPI PUSH0 PUSH0 REVERT JUMPDEST POP PUSH2 0x1DC PUSH2 0x4F0 JUMP JUMPDEST PUSH1 0x40 MLOAD PUSH2 0x1E9 SWAP2 SWAP1 PUSH2 0xC77 JUMP JUMPDEST PUSH1 0x40 MLOAD DUP1 SWAP2 SUB SWAP1 RETURN JUMPDEST CALLVALUE DUP1 ISZERO PUSH2 0x1FD JUMPI PUSH0 PUSH0 REVERT JUMPDEST POP PUSH2 0x218 PUSH1 0x4 DUP1 CALLDATASIZE SUB DUP2 ADD SWAP1 PUSH2 0x213 SWAP2 SWAP1 PUSH2 0xCBE JUMP JUMPDEST PUSH2 0x515 JUMP JUMPDEST STOP JUMPDEST CALLVALUE DUP1 ISZERO PUSH2 0x225 JUMPI PUSH0 PUSH0 REVERT JUMPDEST POP PUSH2 0x22E PUSH2 0x7B0 JUMP JUMPDEST STOP JUMPDEST CALLVALUE DUP1 ISZERO PUSH2 0x23B JUMPI PUSH0 PUSH0 REVERT JUMPDEST POP PUSH2 0x244 PUSH2 0x937 JUMP JUMPDEST PUSH1 0x40 MLOAD PUSH2 0x251 SWAP2 SWAP1 PUSH2 0xC77 JUMP JUMPDEST PUSH1 0x40 MLOAD DUP1 SWAP2 SUB SWAP1 RETURN JUMPDEST PUSH2 0x262 PUSH2 0x95B JUMP JUMPDEST STOP JUMPDEST CALLVALUE DUP1 ISZERO PUSH2 0x26F JUMPI PUSH0 PUSH0 REVERT JUMPDEST POP PUSH2 0x278 PUSH2 0xA7E JUMP JUMPDEST PUSH1 0x40 MLOAD PUSH2 0x285 SWAP2 SWAP1 PUSH2 0xC1F JUMP JUMPDEST PUSH1 0x40 MLOAD DUP1 SWAP2 SUB SWAP1 RETURN JUMPDEST CALLVALUE DUP1 ISZERO PUSH2 0x299 JUMPI PUSH0 PUSH0 REVERT JUMPDEST POP PUSH2 0x2A2 PUSH2 0xA84 JUMP JUMPDEST PUSH1 0x40 MLOAD PUSH2 0x2AF SWAP2 SWAP1 PUSH2 0xC1F JUMP JUMPDEST PUSH1 0x40 MLOAD DUP1 SWAP2 SUB SWAP1 RETURN JUMPDEST PUSH2 0x2C0 PUSH2 0xA8A JUMP JUMPDEST STOP JUMPDEST PUSH1 0x7 PUSH0 SWAP1 SLOAD SWAP1 PUSH2 0x100 EXP SWAP1 DIV PUSH1 0xFF AND DUP2 JUMP JUMPDEST PUSH1 0x6 SLOAD DUP2 JUMP JUMPDEST PUSH0 SELFBALANCE SWAP1 POP SWAP1 JUMP JUMPDEST PUSH1 0x3 SLOAD DUP2 JUMP JUMPDEST PUSH1 0x4 SLOAD DUP2 JUMP JUMPDEST PUSH0 PUSH0 SWAP1 SLOAD SWAP1 PUSH2 0x100 EXP SWAP1 DIV PUSH20 0xFFFFFFFFFFFFFFFFFFFFFFFFFFFFFFFFFFFFFFFF AND PUSH20 0xFFFFFFFFFFFFFFFFFFFFFFFFFFFFFFFFFFFFFFFF AND CALLER PUSH20 0xFFFFFFFFFFFFFFFFFFFFFFFFFFFFFFFFFFFFFFFF AND EQ PUSH2 0x37B JUMPI PUSH1 0x40 MLOAD PUSH32 0x8C379A000000000000000000000000000000000000000000000000000000000 DUP2 MSTORE PUSH1 0x4 ADD PUSH2 0x372 SWAP1 PUSH2 0xD43 JUMP JUMPDEST PUSH1 0x40 MLOAD DUP1 SWAP2 SUB SWAP1 REVERT JUMPDEST PUSH1 0x7 PUSH0 SWAP1 SLOAD SWAP1 PUSH2 0x100 EXP SWAP1 DIV PUSH1 0xFF AND PUSH2 0x3C9 JUMPI PUSH1 0x40 MLOAD PUSH32 0x8C379A000000000000000000000000000000000000000000000000000000000 DUP2 MSTORE PUSH1 0x4 ADD PUSH2 0x3C0 SWAP1 PUSH2 0xDAB JUMP JUMPDEST PUSH1 0x40 MLOAD DUP1 SWAP2 SUB SWAP1 REVERT JUMPDEST PUSH3 0x278D00 PUSH1 0x5 SLOAD PUSH2 0x3DA SWAP2 SWAP1 PUSH2 0xDF6 JUMP JUMPDEST TIMESTAMP LT ISZERO PUSH2 0x41C JUMPI PUSH1 0x40 MLOAD PUSH32 0x8C379A000000000000000000000000000000000000000000000000000000000 DUP2 MSTORE PUSH1 0x4 ADD PUSH2 0x413 SWAP1 PUSH2 0xE73 JUMP JUMPDEST PUSH1 0x40 MLOAD DUP1 SWAP2 SUB SWAP1 REVERT JUMPDEST TIMESTAMP PUSH1 0x5 DUP2 SWAP1 SSTORE POP PUSH0 PUSH0 PUSH0 SWAP1 SLOAD SWAP1 PUSH2 0x100 EXP SWAP1 DIV PUSH20 0xFFFFFFFFFFFFFFFFFFFFFFFFFFFFFFFFFFFFFFFF AND PUSH20 0xFFFFFFFFFFFFFFFFFFFFFFFFFFFFFFFFFFFFFFFF AND PUSH1 0x2 SLOAD PUSH1 0x40 MLOAD PUSH2 0x46A SWAP1 PUSH2 0xEBE JUMP JUMPDEST PUSH0 PUSH1 0x40 MLOAD DUP1 DUP4 SUB DUP2 DUP6 DUP8 GAS CALL SWAP3 POP POP POP RETURNDATASIZE DUP1 PUSH0 DUP2 EQ PUSH2 0x4A4 JUMPI PUSH1 0x40 MLOAD SWAP2 POP PUSH1 0x1F NOT PUSH1 0x3F RETURNDATASIZE ADD AND DUP3 ADD PUSH1 0x40 MSTORE RETURNDATASIZE DUP3 MSTORE RETURNDATASIZE PUSH0 PUSH1 0x20 DUP5 ADD RETURNDATACOPY PUSH2 0x4A9 JUMP JUMPDEST PUSH1 0x60 SWAP2 POP JUMPDEST POP POP SWAP1 POP DUP1 PUSH2 0x4ED JUMPI PUSH1 0x40 MLOAD PUSH32 0x8C379A000000000000000000000000000000000000000000000000000000000 DUP2 MSTORE PUSH1 0x4 ADD PUSH2 0x4E4 SWAP1 PUSH2 0xF1C JUMP JUMPDEST PUSH1 0x40 MLOAD DUP1 SWAP2 SUB SWAP1 REVERT JUMPDEST POP JUMP JUMPDEST PUSH1 0x1 PUSH0 SWAP1 SLOAD SWAP1 PUSH2 0x100 EXP SWAP1 DIV PUSH20 0xFFFFFFFFFFFFFFFFFFFFFFFFFFFFFFFFFFFFFFFF AND DUP2 JUMP JUMPDEST PUSH0 PUSH0 SWAP1 SLOAD SWAP1 PUSH2 0x100 EXP SWAP1 DIV PUSH20 0xFFFFFFFFFFFFFFFFFFFFFFFFFFFFFFFFFFFFFFFF AND PUSH20 0xFFFFFFFFFFFFFFFFFFFFFFFFFFFFFFFFFFFFFFFF AND CALLER PUSH20 0xFFFFFFFFFFFFFFFFFFFFFFFFFFFFFFFFFFFFFFFF AND EQ PUSH2 0x5A3 JUMPI PUSH1 0x40 MLOAD PUSH32 0x8C379A000000000000000000000000000000000000000000000000000000000 DUP2 MSTORE PUSH1 0x4 ADD PUSH2 0x59A SWAP1 PUSH2 0xD43 JUMP JUMPDEST PUSH1 0x40 MLOAD DUP1 SWAP2 SUB SWAP1 REVERT JUMPDEST PUSH1 0x7 PUSH0 SWAP1 SLOAD SWAP1 PUSH2 0x100 EXP SWAP1 DIV PUSH1 0xFF AND PUSH2 0x5F1 JUMPI PUSH1 0x40 MLOAD PUSH32 0x8C379A000000000000000000000000000000000000000000000000000000000 DUP2 MSTORE PUSH1 0x4 ADD PUSH2 0x5E8 SWAP1 PUSH2 0xDAB JUMP JUMPDEST PUSH1 0x40 MLOAD DUP1 SWAP2 SUB SWAP1 REVERT JUMPDEST PUSH0 PUSH1 0x7 PUSH0 PUSH2 0x100 EXP DUP2 SLOAD DUP2 PUSH1 0xFF MUL NOT AND SWAP1 DUP4 ISZERO ISZERO MUL OR SWAP1 SSTORE POP DUP1 ISZERO PUSH2 0x6E1 JUMPI PUSH0 PUSH1 0x1 PUSH0 SWAP1 SLOAD SWAP1 PUSH2 0x100 EXP SWAP1 DIV PUSH20 0xFFFFFFFFFFFFFFFFFFFFFFFFFFFFFFFFFFFFFFFF AND PUSH20 0xFFFFFFFFFFFFFFFFFFFFFFFFFFFFFFFFFFFFFFFF AND PUSH1 0x3 SLOAD PUSH1 0x40 MLOAD PUSH2 0x658 SWAP1 PUSH2 0xEBE JUMP JUMPDEST PUSH0 PUSH1 0x40 MLOAD DUP1 DUP4 SUB DUP2 DUP6 DUP8 GAS CALL SWAP3 POP POP POP RETURNDATASIZE DUP1 PUSH0 DUP2 EQ PUSH2 0x692 JUMPI PUSH1 0x40 MLOAD SWAP2 POP PUSH1 0x1F NOT PUSH1 0x3F RETURNDATASIZE ADD AND DUP3 ADD PUSH1 0x40 MSTORE RETURNDATASIZE DUP3 MSTORE RETURNDATASIZE PUSH0 PUSH1 0x20 DUP5 ADD RETURNDATACOPY PUSH2 0x697 JUMP JUMPDEST PUSH1 0x60 SWAP2 POP JUMPDEST POP POP SWAP1 POP DUP1 PUSH2 0x6DB JUMPI PUSH1 0x40 MLOAD PUSH32 0x8C379A000000000000000000000000000000000000000000000000000000000 DUP2 MSTORE PUSH1 0x4 ADD PUSH2 0x6D2 SWAP1 PUSH2 0xF84 JUMP JUMPDEST PUSH1 0x40 MLOAD DUP1 SWAP2 SUB SWAP1 REVERT JUMPDEST POP PUSH2 0x7AD JUMP JUMPDEST PUSH0 PUSH0 PUSH0 SWAP1 SLOAD SWAP1 PUSH2 0x100 EXP SWAP1 DIV PUSH20 0xFFFFFFFFFFFFFFFFFFFFFFFFFFFFFFFFFFFFFFFF AND PUSH20 0xFFFFFFFFFFFFFFFFFFFFFFFFFFFFFFFFFFFFFFFF AND PUSH1 0x3 SLOAD PUSH1 0x40 MLOAD PUSH2 0x728 SWAP1 PUSH2 0xEBE JUMP JUMPDEST PUSH0 PUSH1 0x40 MLOAD DUP1 DUP4 SUB DUP2 DUP6 DUP8 GAS CALL SWAP3 POP POP POP RETURNDATASIZE DUP1 PUSH0 DUP2 EQ PUSH2 0x762 JUMPI PUSH1 0x40 MLOAD SWAP2 POP PUSH1 0x1F NOT PUSH1 0x3F RETURNDATASIZE ADD AND DUP3 ADD PUSH1 0x40 MSTORE RETURNDATASIZE DUP3 MSTORE RETURNDATASIZE PUSH0 PUSH1 0x20 DUP5 ADD RETURNDATACOPY PUSH2 0x767 JUMP JUMPDEST PUSH1 0x60 SWAP2 POP JUMPDEST POP POP SWAP1 POP DUP1 PUSH2 0x7AB JUMPI PUSH1 0x40 MLOAD PUSH32 0x8C379A000000000000000000000000000000000000000000000000000000000 DUP2 MSTORE PUSH1 0x4 ADD PUSH2 0x7A2 SWAP1 PUSH2 0xFEC JUMP JUMPDEST PUSH1 0x40 MLOAD DUP1 SWAP2 SUB SWAP1 REVERT JUMPDEST POP JUMPDEST POP JUMP JUMPDEST PUSH1 0x6 SLOAD PUSH1 0x4 SLOAD PUSH2 0x7C0 SWAP2 SWAP1 PUSH2 0xDF6 JUMP JUMPDEST TIMESTAMP LT ISZERO PUSH2 0x802 JUMPI PUSH1 0x40 MLOAD PUSH32 0x8C379A000000000000000000000000000000000000000000000000000000000 DUP2 MSTORE PUSH1 0x4 ADD PUSH2 0x7F9 SWAP1 PUSH2 0x1054 JUMP JUMPDEST PUSH1 0x40 MLOAD DUP1 SWAP2 SUB SWAP1 REVERT JUMPDEST PUSH1 0x7 PUSH0 SWAP1 SLOAD SWAP1 PUSH2 0x100 EXP SWAP1 DIV PUSH1 0xFF AND PUSH2 0x850 JUMPI PUSH1 0x40 MLOAD PUSH32 0x8C379A000000000000000000000000000000000000000000000000000000000 DUP2 MSTORE PUSH1 0x4 ADD PUSH2 0x847 SWAP1 PUSH2 0x10BC JUMP JUMPDEST PUSH1 0x40 MLOAD DUP1 SWAP2 SUB SWAP1 REVERT JUMPDEST PUSH0 PUSH1 0x7 PUSH0 PUSH2 0x100 EXP DUP2 SLOAD DUP2 PUSH1 0xFF MUL NOT AND SWAP1 DUP4 ISZERO ISZERO MUL OR SWAP1 SSTORE POP PUSH0 PUSH1 0x1 PUSH0 SWAP1 SLOAD SWAP1 PUSH2 0x100 EXP SWAP1 DIV PUSH20 0xFFFFFFFFFFFFFFFFFFFFFFFFFFFFFFFFFFFFFFFF AND PUSH20 0xFFFFFFFFFFFFFFFFFFFFFFFFFFFFFFFFFFFFFFFF AND PUSH1 0x3 SLOAD PUSH1 0x40 MLOAD PUSH2 0x8B1 SWAP1 PUSH2 0xEBE JUMP JUMPDEST PUSH0 PUSH1 0x40 MLOAD DUP1 DUP4 SUB DUP2 DUP6 DUP8 GAS CALL SWAP3 POP POP POP RETURNDATASIZE DUP1 PUSH0 DUP2 EQ PUSH2 0x8EB JUMPI PUSH1 0x40 MLOAD SWAP2 POP PUSH1 0x1F NOT PUSH1 0x3F RETURNDATASIZE ADD AND DUP3 ADD PUSH1 0x40 MSTORE RETURNDATASIZE DUP3 MSTORE RETURNDATASIZE PUSH0 PUSH1 0x20 DUP5 ADD RETURNDATACOPY PUSH2 0x8F0 JUMP JUMPDEST PUSH1 0x60 SWAP2 POP JUMPDEST POP POP SWAP1 POP DUP1 PUSH2 0x934 JUMPI PUSH1 0x40 MLOAD PUSH32 0x8C379A000000000000000000000000000000000000000000000000000000000 DUP2 MSTORE PUSH1 0x4 ADD PUSH2 0x92B SWAP1 PUSH2 0x1124 JUMP JUMPDEST PUSH1 0x40 MLOAD DUP1 SWAP2 SUB SWAP1 REVERT JUMPDEST POP JUMP JUMPDEST PUSH0 PUSH0 SWAP1 SLOAD SWAP1 PUSH2 0x100 EXP SWAP1 DIV PUSH20 0xFFFFFFFFFFFFFFFFFFFFFFFFFFFFFFFFFFFFFFFF AND DUP2 JUMP JUMPDEST PUSH1 0x1 PUSH0 SWAP1 SLOAD SWAP1 PUSH2 0x100 EXP SWAP1 DIV PUSH20 0xFFFFFFFFFFFFFFFFFFFFFFFFFFFFFFFFFFFFFFFF AND PUSH20 0xFFFFFFFFFFFFFFFFFFFFFFFFFFFFFFFFFFFFFFFF AND CALLER PUSH20 0xFFFFFFFFFFFFFFFFFFFFFFFFFFFFFFFFFFFFFFFF AND EQ PUSH2 0x9EA JUMPI PUSH1 0x40 MLOAD PUSH32 0x8C379A000000000000000000000000000000000000000000000000000000000 DUP2 MSTORE PUSH1 0x4 ADD PUSH2 0x9E1 SWAP1 PUSH2 0x118C JUMP JUMPDEST PUSH1 0x40 MLOAD DUP1 SWAP2 SUB SWAP1 REVERT JUMPDEST PUSH1 0x7 PUSH0 SWAP1 SLOAD SWAP1 PUSH2 0x100 EXP SWAP1 DIV PUSH1 0xFF AND PUSH2 0xA38 JUMPI PUSH1 0x40 MLOAD PUSH32 0x8C379A000000000000000000000000000000000000000000000000000000000 DUP2 MSTORE PUSH1 0x4 ADD PUSH2 0xA2F SWAP1 PUSH2 0xDAB JUMP JUMPDEST PUSH1 0x40 MLOAD DUP1 SWAP2 SUB SWAP1 REVERT JUMPDEST PUSH1 0x2 SLOAD CALLVALUE EQ PUSH2 0xA7C JUMPI PUSH1 0x40 MLOAD PUSH32 0x8C379A000000000000000000000000000000000000000000000000000000000 DUP2 MSTORE PUSH1 0x4 ADD PUSH2 0xA73 SWAP1 PUSH2 0x11F4 JUMP JUMPDEST PUSH1 0x40 MLOAD DUP1 SWAP2 SUB SWAP1 REVERT JUMPDEST JUMP JUMPDEST PUSH1 0x5 SLOAD DUP2 JUMP JUMPDEST PUSH1 0x2 SLOAD DUP2 JUMP JUMPDEST PUSH0 PUSH20 0xFFFFFFFFFFFFFFFFFFFFFFFFFFFFFFFFFFFFFFFF AND PUSH1 0x1 PUSH0 SWAP1 SLOAD SWAP1 PUSH2 0x100 EXP SWAP1 DIV PUSH20 0xFFFFFFFFFFFFFFFFFFFFFFFFFFFFFFFFFFFFFFFF AND PUSH20 0xFFFFFFFFFFFFFFFFFFFFFFFFFFFFFFFFFFFFFFFF AND EQ PUSH2 0xB19 JUMPI PUSH1 0x40 MLOAD PUSH32 0x8C379A000000000000000000000000000000000000000000000000000000000 DUP2 MSTORE PUSH1 0x4 ADD PUSH2 0xB10 SWAP1 PUSH2 0x125C JUMP JUMPDEST PUSH1 0x40 MLOAD DUP1 SWAP2 SUB SWAP1 REVERT JUMPDEST PUSH1 0x3 SLOAD PUSH1 0x2 SLOAD PUSH2 0xB29 SWAP2 SWAP1 PUSH2 0xDF6 JUMP JUMPDEST CALLVALUE EQ PUSH2 0xB6A JUMPI PUSH1 0x40 MLOAD PUSH32 0x8C379A000000000000000000000000000000000000000000000000000000000 DUP2 MSTORE PUSH1 0x4 ADD PUSH2 0xB61 SWAP1 PUSH2 0x12C4 JUMP JUMPDEST PUSH1 0x40 MLOAD DUP1 SWAP2 SUB SWAP1 REVERT JUMPDEST CALLER PUSH1 0x1 PUSH0 PUSH2 0x100 EXP DUP2 SLOAD DUP2 PUSH20 0xFFFFFFFFFFFFFFFFFFFFFFFFFFFFFFFFFFFFFFFF MUL NOT AND SWAP1 DUP4 PUSH20 0xFFFFFFFFFFFFFFFFFFFFFFFFFFFFFFFFFFFFFFFF AND MUL OR SWAP1 SSTORE POP TIMESTAMP PUSH1 0x4 DUP2 SWAP1 SSTORE POP TIMESTAMP PUSH1 0x5 DUP2 SWAP1 SSTORE POP PUSH1 0x1 PUSH1 0x7 PUSH0 PUSH2 0x100 EXP DUP2 SLOAD DUP2 PUSH1 0xFF MUL NOT AND SWAP1 DUP4 ISZERO ISZERO MUL OR SWAP1 SSTORE POP JUMP JUMPDEST PUSH0 DUP2 ISZERO ISZERO SWAP1 POP SWAP2 SWAP1 POP JUMP JUMPDEST PUSH2 0xBE8 DUP2 PUSH2 0xBD4 JUMP JUMPDEST DUP3 MSTORE POP POP JUMP JUMPDEST PUSH0 PUSH1 0x20 DUP3 ADD SWAP1 POP PUSH2 0xC01 PUSH0 DUP4 ADD DUP5 PUSH2 0xBDF JUMP JUMPDEST SWAP3 SWAP2 POP POP JUMP JUMPDEST PUSH0 DUP2 SWAP1 POP SWAP2 SWAP1 POP JUMP JUMPDEST PUSH2 0xC19 DUP2 PUSH2 0xC07 JUMP JUMPDEST DUP3 MSTORE POP POP JUMP JUMPDEST PUSH0 PUSH1 0x20 DUP3 ADD SWAP1 POP PUSH2 0xC32 PUSH0 DUP4 ADD DUP5 PUSH2 0xC10 JUMP JUMPDEST SWAP3 SWAP2 POP POP JUMP JUMPDEST PUSH0 PUSH20 0xFFFFFFFFFFFFFFFFFFFFFFFFFFFFFFFFFFFFFFFF DUP3 AND SWAP1 POP SWAP2 SWAP1 POP JUMP JUMPDEST PUSH0 PUSH2 0xC61 DUP3 PUSH2 0xC38 JUMP JUMPDEST SWAP1 POP SWAP2 SWAP1 POP JUMP JUMPDEST PUSH2 0xC71 DUP2 PUSH2 0xC57 JUMP JUMPDEST DUP3 MSTORE POP POP JUMP JUMPDEST PUSH0 PUSH1 0x20 DUP3 ADD SWAP1 POP PUSH2 0xC8A PUSH0 DUP4 ADD DUP5 PUSH2 0xC68 JUMP JUMPDEST SWAP3 SWAP2 POP POP JUMP JUMPDEST PUSH0 PUSH0 REVERT JUMPDEST PUSH2 0xC9D DUP2 PUSH2 0xBD4 JUMP JUMPDEST DUP2 EQ PUSH2 0xCA7 JUMPI PUSH0 PUSH0 REVERT JUMPDEST POP JUMP JUMPDEST PUSH0 DUP2 CALLDATALOAD SWAP1 POP PUSH2 0xCB8 DUP2 PUSH2 0xC94 JUMP JUMPDEST SWAP3 SWAP2 POP POP JUMP JUMPDEST PUSH0 PUSH1 0x20 DUP3 DUP5 SUB SLT ISZERO PUSH2 0xCD3 JUMPI PUSH2 0xCD2 PUSH2 0xC90 JUMP JUMPDEST JUMPDEST PUSH0 PUSH2 0xCE0 DUP5 DUP3 DUP6 ADD PUSH2 0xCAA JUMP JUMPDEST SWAP2 POP POP SWAP3 SWAP2 POP POP JUMP JUMPDEST PUSH0 DUP3 DUP3 MSTORE PUSH1 0x20 DUP3 ADD SWAP1 POP SWAP3 SWAP2 POP POP JUMP JUMPDEST PUSH32 0x4E6F74206C616E646C6F72640000000000000000000000000000000000000000 PUSH0 DUP3 ADD MSTORE POP JUMP JUMPDEST PUSH0 PUSH2 0xD2D PUSH1 0xC DUP4 PUSH2 0xCE9 JUMP JUMPDEST SWAP2 POP PUSH2 0xD38 DUP3 PUSH2 0xCF9 JUMP JUMPDEST PUSH1 0x20 DUP3 ADD SWAP1 POP SWAP2 SWAP1 POP JUMP JUMPDEST PUSH0 PUSH1 0x20 DUP3 ADD SWAP1 POP DUP2 DUP2 SUB PUSH0 DUP4 ADD MSTORE PUSH2 0xD5A DUP2 PUSH2 0xD21 JUMP JUMPDEST SWAP1 POP SWAP2 SWAP1 POP JUMP JUMPDEST PUSH32 0x436F6E7472616374206E6F742061637469766500000000000000000000000000 PUSH0 DUP3 ADD MSTORE POP JUMP JUMPDEST PUSH0 PUSH2 0xD95 PUSH1 0x13 DUP4 PUSH2 0xCE9 JUMP JUMPDEST SWAP2 POP PUSH2 0xDA0 DUP3 PUSH2 0xD61 JUMP JUMPDEST PUSH1 0x20 DUP3 ADD SWAP1 POP SWAP2 SWAP1 POP JUMP JUMPDEST PUSH0 PUSH1 0x20 DUP3 ADD SWAP1 POP DUP2 DUP2 SUB PUSH0 DUP4 ADD MSTORE PUSH2 0xDC2 DUP2 PUSH2 0xD89 JUMP JUMPDEST SWAP1 POP SWAP2 SWAP1 POP JUMP JUMPDEST PUSH32 0x4E487B7100000000000000000000000000000000000000000000000000000000 PUSH0 MSTORE PUSH1 0x11 PUSH1 0x4 MSTORE PUSH1 0x24 PUSH0 REVERT JUMPDEST PUSH0 PUSH2 0xE00 DUP3 PUSH2 0xC07 JUMP JUMPDEST SWAP2 POP PUSH2 0xE0B DUP4 PUSH2 0xC07 JUMP JUMPDEST SWAP3 POP DUP3 DUP3 ADD SWAP1 POP DUP1 DUP3 GT ISZERO PUSH2 0xE23 JUMPI PUSH2 0xE22 PUSH2 0xDC9 JUMP JUMPDEST JUMPDEST SWAP3 SWAP2 POP POP JUMP JUMPDEST PUSH32 0x546F6F206561726C7920746F20636C61696D0000000000000000000000000000 PUSH0 DUP3 ADD MSTORE POP JUMP JUMPDEST PUSH0 PUSH2 0xE5D PUSH1 0x12 DUP4 PUSH2 0xCE9 JUMP JUMPDEST SWAP2 POP PUSH2 0xE68 DUP3 PUSH2 0xE29 JUMP JUMPDEST PUSH1 0x20 DUP3 ADD SWAP1 POP SWAP2 SWAP1 POP JUMP JUMPDEST PUSH0 PUSH1 0x20 DUP3 ADD SWAP1 POP DUP2 DUP2 SUB PUSH0 DUP4 ADD MSTORE PUSH2 0xE8A DUP2 PUSH2 0xE51 JUMP JUMPDEST SWAP1 POP SWAP2 SWAP1 POP JUMP JUMPDEST PUSH0 DUP2 SWAP1 POP SWAP3 SWAP2 POP POP JUMP JUMPDEST POP JUMP JUMPDEST PUSH0 PUSH2 0xEA9 PUSH0 DUP4 PUSH2 0xE91 JUMP JUMPDEST SWAP2 POP PUSH2 0xEB4 DUP3 PUSH2 0xE9B JUMP JUMPDEST PUSH0 DUP3 ADD SWAP1 POP SWAP2 SWAP1 POP JUMP JUMPDEST PUSH0 PUSH2 0xEC8 DUP3 PUSH2 0xE9E JUMP JUMPDEST SWAP2 POP DUP2 SWAP1 POP SWAP2 SWAP1 POP JUMP JUMPDEST PUSH32 0x52656E74207472616E73666572206661696C6564000000000000000000000000 PUSH0 DUP3 ADD MSTORE POP JUMP JUMPDEST PUSH0 PUSH2 0xF06 PUSH1 0x14 DUP4 PUSH2 0xCE9 JUMP JUMPDEST SWAP2 POP PUSH2 0xF11 DUP3 PUSH2 0xED2 JUMP JUMPDEST PUSH1 0x20 DUP3 ADD SWAP1 POP SWAP2 SWAP1 POP JUMP JUMPDEST PUSH0 PUSH1 0x20 DUP3 ADD SWAP1 POP DUP2 DUP2 SUB PUSH0 DUP4 ADD MSTORE PUSH2 0xF33 DUP2 PUSH2 0xEFA JUMP JUMPDEST SWAP1 POP SWAP2 SWAP1 POP JUMP JUMPDEST PUSH32 0x526566756E64206661696C656400000000000000000000000000000000000000 PUSH0 DUP3 ADD MSTORE POP JUMP JUMPDEST PUSH0 PUSH2 0xF6E PUSH1 0xD DUP4 PUSH2 0xCE9 JUMP JUMPDEST SWAP2 POP PUSH2 0xF79 DUP3 PUSH2 0xF3A JUMP JUMPDEST PUSH1 0x20 DUP3 ADD SWAP1 POP SWAP2 SWAP1 POP JUMP JUMPDEST PUSH0 PUSH1 0x20 DUP3 ADD SWAP1 POP DUP2 DUP2 SUB PUSH0 DUP4 ADD MSTORE PUSH2 0xF9B DUP2 PUSH2 0xF62 JUMP JUMPDEST SWAP1 POP SWAP2 SWAP1 POP JUMP JUMPDEST PUSH32 0x4465706F736974207472616E73666572206661696C6564000000000000000000 PUSH0 DUP3 ADD MSTORE POP JUMP JUMPDEST PUSH0 PUSH2 0xFD6 PUSH1 0x17 DUP4 PUSH2 0xCE9 JUMP JUMPDEST SWAP2 POP PUSH2 0xFE1 DUP3 PUSH2 0xFA2 JUMP JUMPDEST PUSH1 0x20 DUP3 ADD SWAP1 POP SWAP2 SWAP1 POP JUMP JUMPDEST PUSH0 PUSH1 0x20 DUP3 ADD SWAP1 POP DUP2 DUP2 SUB PUSH0 DUP4 ADD MSTORE PUSH2 0x1003 DUP2 PUSH2 0xFCA JUMP JUMPDEST SWAP1 POP SWAP2 SWAP1 POP JUMP JUMPDEST PUSH32 0x5374696C6C206163746976650000000000000000000000000000000000000000 PUSH0 DUP3 ADD MSTORE POP JUMP JUMPDEST PUSH0 PUSH2 0x103E PUSH1 0xC DUP4 PUSH2 0xCE9 JUMP JUMPDEST SWAP2 POP PUSH2 0x1049 DUP3 PUSH2 0x100A JUMP JUMPDEST PUSH1 0x20 DUP3 ADD SWAP1 POP SWAP2 SWAP1 POP JUMP JUMPDEST PUSH0 PUSH1 0x20 DUP3 ADD SWAP1 POP DUP2 DUP2 SUB PUSH0 DUP4 ADD MSTORE PUSH2 0x106B DUP2 PUSH2 0x1032 JUMP JUMPDEST SWAP1 POP SWAP2 SWAP1 POP JUMP JUMPDEST PUSH32 0x416C726561647920636C6F736564000000000000000000000000000000000000 PUSH0 DUP3 ADD MSTORE POP JUMP JUMPDEST PUSH0 PUSH2 0x10A6 PUSH1 0xE DUP4 PUSH2 0xCE9 JUMP JUMPDEST SWAP2 POP PUSH2 0x10B1 DUP3 PUSH2 0x1072 JUMP JUMPDEST PUSH1 0x20 DUP3 ADD SWAP1 POP SWAP2 SWAP1 POP JUMP JUMPDEST PUSH0 PUSH1 0x20 DUP3 ADD SWAP1 POP DUP2 DUP2 SUB PUSH0 DUP4 ADD MSTORE PUSH2 0x10D3 DUP2 PUSH2 0x109A JUMP JUMPDEST SWAP1 POP SWAP2 SWAP1 POP JUMP JUMPDEST PUSH32 0x4175746F20726566756E64206661696C65640000000000000000000000000000 PUSH0 DUP3 ADD MSTORE POP JUMP JUMPDEST PUSH0 PUSH2 0x110E PUSH1 0x12 DUP4 PUSH2 0xCE9 JUMP JUMPDEST SWAP2 POP PUSH2 0x1119 DUP3 PUSH2 0x10DA JUMP JUMPDEST PUSH1 0x20 DUP3 ADD SWAP1 POP SWAP2 SWAP1 POP JUMP JUMPDEST PUSH0 PUSH1 0x20 DUP3 ADD SWAP1 POP DUP2 DUP2 SUB PUSH0 DUP4 ADD MSTORE PUSH2 0x113B DUP2 PUSH2 0x1102 JUMP JUMPDEST SWAP1 POP SWAP2 SWAP1 POP JUMP JUMPDEST PUSH32 0x4E6F742074656E616E7400000000000000000000000000000000000000000000 PUSH0 DUP3 ADD MSTORE POP JUMP JUMPDEST PUSH0 PUSH2 0x1176 PUSH1 0xA DUP4 PUSH2 0xCE9 JUMP JUMPDEST SWAP2 POP PUSH2 0x1181 DUP3 PUSH2 0x1142 JUMP JUMPDEST PUSH1 0x20 DUP3 ADD SWAP1 POP SWAP2 SWAP1 POP JUMP JUMPDEST PUSH0 PUSH1 0x20 DUP3 ADD SWAP1 POP DUP2 DUP2 SUB PUSH0 DUP4 ADD MSTORE PUSH2 0x11A3 DUP2 PUSH2 0x116A JUMP JUMPDEST SWAP1 POP SWAP2 SWAP1 POP JUMP JUMPDEST PUSH32 0x57726F6E6720616D6F756E740000000000000000000000000000000000000000 PUSH0 DUP3 ADD MSTORE POP JUMP JUMPDEST PUSH0 PUSH2 0x11DE PUSH1 0xC DUP4 PUSH2 0xCE9 JUMP JUMPDEST SWAP2 POP PUSH2 0x11E9 DUP3 PUSH2 0x11AA JUMP JUMPDEST PUSH1 0x20 DUP3 ADD SWAP1 POP SWAP2 SWAP1 POP JUMP JUMPDEST PUSH0 PUSH1 0x20 DUP3 ADD SWAP1 POP DUP2 DUP2 SUB PUSH0 DUP4 ADD MSTORE PUSH2 0x120B DUP2 PUSH2 0x11D2 JUMP JUMPDEST SWAP1 POP SWAP2 SWAP1 POP JUMP JUMPDEST PUSH32 0x416C72656164792072656E746564000000000000000000000000000000000000 PUSH0 DUP3 ADD MSTORE POP JUMP JUMPDEST PUSH0 PUSH2 0x1246 PUSH1 0xE DUP4 PUSH2 0xCE9 JUMP JUMPDEST SWAP2 POP PUSH2 0x1251 DUP3 PUSH2 0x1212 JUMP JUMPDEST PUSH1 0x20 DUP3 ADD SWAP1 POP SWAP2 SWAP1 POP JUMP JUMPDEST PUSH0 PUSH1 0x20 DUP3 ADD SWAP1 POP DUP2 DUP2 SUB PUSH0 DUP4 ADD MSTORE PUSH2 0x1273 DUP2 PUSH2 0x123A JUMP JUMPDEST SWAP1 POP SWAP2 SWAP1 POP JUMP JUMPDEST PUSH32 0x496E636F7272656374207061796D656E74000000000000000000000000000000 PUSH0 DUP3 ADD MSTORE POP JUMP JUMPDEST PUSH0 PUSH2 0x12AE PUSH1 0x11 DUP4 PUSH2 0xCE9 JUMP JUMPDEST SWAP2 POP PUSH2 0x12B9 DUP3 PUSH2 0x127A JUMP JUMPDEST PUSH1 0x20 DUP3 ADD SWAP1 POP SWAP2 SWAP1 POP JUMP JUMPDEST PUSH0 PUSH1 0x20 DUP3 ADD SWAP1 POP DUP2 DUP2 SUB PUSH0 DUP4 ADD MSTORE PUSH2 0x12DB DUP2 PUSH2 0x12A2 JUMP JUMPDEST SWAP1 POP SWAP2 SWAP1 POP JUMP INVALID LOG2 PUSH5 0x6970667358 0x22 SLT KECCAK256 EOFCREATE 0x94 LOG3 0xDE 0xDF LOG3 DIV TIMESTAMP STOP 0xD7 SAR RETURNDATASIZE INVALID 0xC2 0xBF PUSH8 0x158BC8E255D7E864 PUSH0 EXTSTATICCALL LOG2 MCOPY LOG4 PUSH27 0x146864736F6C634300081F00330000000000000000000000000000 "
				},
				"gasEstimates": {
					"creation": {
						"codeDepositCost": "977600",
						"executionCost": "infinite",
						"totalCost": "infinite"
					},
					"external": {
						"active()": "2490",
						"autoExpire()": "infinite",
						"claimRent()": "infinite",
						"duration()": "2471",
						"endAgreement(bool)": "infinite",
						"getBalance()": "402",
						"joinAsTenant()": "infinite",
						"landlord()": "2574",
						"lastRentPaid()": "2469",
						"payNextRent()": "6868",
						"rentAmount()": "2491",
						"securityDeposit()": "2448",
						"startTime()": "2470",
						"tenant()": "2597"
					}
				},
				"methodIdentifiers": {
					"active()": "02fb0c5e",
					"autoExpire()": "d5ec1b16",
					"claimRent()": "8cbe5104",
					"duration()": "0fb5a6b4",
					"endAgreement(bool)": "b6d6f55b",
					"getBalance()": "12065fe0",
					"joinAsTenant()": "fe1ac79e",
					"landlord()": "dc1997ea",
					"lastRentPaid()": "e1d703e4",
					"payNextRent()": "e14f4cca",
					"rentAmount()": "f8ef1e13",
					"securityDeposit()": "220e5ab3",
					"startTime()": "78e97925",
					"tenant()": "adf07791"
				}
			},
			"storageLayout": {
				"storage": [
					{
						"astId": 3,
						"contract": "RentalAgreement.sol:RentalAgreement",
						"label": "landlord",
						"offset": 0,
						"slot": "0",
						"type": "t_address"
					},
					{
						"astId": 5,
						"contract": "RentalAgreement.sol:RentalAgreement",
						"label": "tenant",
						"offset": 0,
						"slot": "1",
						"type": "t_address"
					},
					{
						"astId": 7,
						"contract": "RentalAgreement.sol:RentalAgreement",
						"label": "rentAmount",
						"offset": 0,
						"slot": "2",
						"type": "t_uint256"
					},
					{
						"astId": 9,
						"contract": "RentalAgreement.sol:RentalAgreement",
						"label": "securityDeposit",
						"offset": 0,
						"slot": "3",
						"type": "t_uint256"
					},
					{
						"astId": 11,
						"contract": "RentalAgreement.sol:RentalAgreement",
						"label": "startTime",
						"offset": 0,
						"slot": "4",
						"type": "t_uint256"
					},
					{
						"astId": 13,
						"contract": "RentalAgreement.sol:RentalAgreement",
						"label": "lastRentPaid",
						"offset": 0,
						"slot": "5",
						"type": "t_uint256"
					},
					{
						"astId": 15,
						"contract": "RentalAgreement.sol:RentalAgreement",
						"label": "duration",
						"offset": 0,
						"slot": "6",
						"type": "t_uint256"
					},
					{
						"astId": 17,
						"contract": "RentalAgreement.sol:RentalAgreement",
						"label": "active",
						"offset": 0,
						"slot": "7",
						"type": "t_bool"
					}
				],
				"types": {
					"t_address": {
						"encoding": "inplace",
						"label": "address",
						"numberOfBytes": "20"
					},
					"t_bool": {
						"encoding": "inplace",
						"label": "bool",
						"numberOfBytes": "1"
					},
					"t_uint256": {
						"encoding": "inplace",
						"label": "uint256",
						"numberOfBytes": "32"
					}
				}
			},
			"userdoc": {
				"kind": "user",
				"methods": {},
				"version": 1
			}
		}
	}
}